S01C0000574946492D676574576561746865722D455854312E737265634D
S21440000090314020453B4000433B4000433B40004E
S214400010433B4000433B4000433B40000000000061
S214400020000000000000000000000000433B4000CD
S214400030433B400000000000433B4000433B400041
S214400040433B4000433B4000433B4000433B400073
S214400050433B4000433B4000433B4000433B400063
S214400060433B4000000000005D36400071364000D3
S21440007085364000433B4000433B4000433B400006
S21440008099364000AD364000433B4000433B40007D
S214400090433B4000433B4000433B4000433B400023
S2144000A0433B4000433B4000433B4000433B400013
S2144000B0433B4000433B4000433B4000433B400003
S2144000C0433B4000433B4000433B4000433B4000F3
S2144000D000000000433B400000000000433B40005F
S2144000E0433B4000433B4000433B4000433B4000D3
S2144000F0433B4000433B4000433B4000433B4000C3
S214400100433B4000433B4000433B4000433B4000B2
S214400110433B4000000000000000000000000000DC
S214400120433B4000433B4000433B4000433B400092
S214400130433B400000000000433B4000433B400040
S21440014010B5054C237833B9044B13B10448AFF3CC
S21440015000800123237010BD440A402000000000A8
S21440016044C140000C4B43B10C480D4910B5AFF3A9
S21440017000800C48036823B910BD0A48036833B9A9
S2144001807047094B002BF7D0BDE810401847064B88
S214400190002BF5D0184700BF0000000044C14000C7
S2144001A0480A402044C1400000000000102808D102
S2144001B0B1F1805F05D108B5024B1B6803B1984783
S2144001C008BD7047600A402050B170B5441E054EC9
S2144001D0054D3046A847013CB4F1FF3FF9D170BD0C
S2144001E0704700BF35160300010040202DE9F0415E
S2144001F0094F4FF40038C7F83480084D08266E6320
S2144002006420074CA047C7F830806420A0472E6380
S2144002106420A047BDE8F08100120E4000100E405A
S214400220C901400010B50022144B1A600A20144C35
S214400230A0470B20A0470C20A0471020A047112025
S214400240A047104B08221A61C3F8A0201A630E4A32
S2144002504FF400311161C2F8A010116304221A61F4
S214400260C3F8A0201A63094B1B6813F0010F01D096
S214400270064B1B68064B9847002010BD600A40207E
S2144002806538400000100E4000120E4010E000E0BE
S214400290ED01400030B583B0144B18601020144B6D
S2144002A098474FF020517C20124B9847124C012221
S2144002B04FF080512046114B9847114B00935123E5
S2144002C04FF08052102120460E4DA8474FF08051E7
S2144002D020460D4B98474FF480320C4B1A60002254
S2144002E0102120460A4B984703B030BD600A402094
S2144002F0653840006D34400000140E4031334000F5
S214400300AD014000ED3540005D34400000E100E0C6
S214400310C136400008B528B94FF080510448054B17
S214400320984708BD4FF080510148034B984708BD99
S21440033000140E40613440005D344000F8B5394C3E
S2144003404FF480112166C4F8901061656162C4F86C
S2144003508010236F0B432367636F23F48013636718
S2144003604FF400122266C4F8902062656262C4F8B8
S2144003708020236F13432367636F23F40013636760
S2144003804FF480032366C4F8903063656362C4F814
S2144003908030206F18432067606F20F480006067CD
S2144003A06160626063604FF000766660266026613A
S2144003B026631D4D28461D4B984702232B608023FD
S2144003C02B606B6843F001036B606B6843F010036F
S2144003D06B6001212846164B98470022012128468B
S2144003E0144B9847012211462846134B9847002243
S2144003F001212846114B984711491248124B9847FD
S214400400C2B201212846114B984700231A460121C3
S21440041028460F4FB84701232B6026630D4B98475D
S2144004200020F8BD00140E4000800040B93840005F
S214400430E53840005F3940007D3940009B39400038
S21440044000A3E111006CDC02AF394000C539400022
S214400450ED394000ED0140002DE9F04F83B0032810
S21440046044D10E684D680C8900238DF80430ADF8F1
S214400470063086B1002D36D14FF00108994601ADC1
S2144004804FF00072204B5A632CB3204FDFF894B0E5
S214400490DFF894A006E04FF000084FF0010901AEE7
S2144004A0EEE7C4B100231A4631783846D8470DF1F6
S2144004B005020DF106013846D047BDF806302B70D0
S2144004C0013CA4B2B8F1000F00D10135B9F1000FDC
S2144004D0E7D10136E5E74FF000720B4B1A63002078
S2144004E003B0BDE8F08F6FF00500F9E740F21F1249
S2144004F007490848084CA0470848A0470848A0476E
S2144005004FF0FF30ECE700BF00140E400080004084
S214400510BCAD4000CCAD400069454000E0AD400079
S214400520F8AD40002B394000FB38400002220E4B0D
S2144005301A6003F5592303F580634FF400125A619D
S214400540C3F8A0204FF480125A61C3F8A0204FF49D
S21440055080025A61C3F8A0204FF000725A61C3F877
S214400560A0200020704700BF008000403AB101390B
S214400570821811F8013F00F8013B9042F9D17047CC
S21440058022B1821800F8011B9042FBD170470378D5
S21440059043B1002301339BB210F8012F002AF9D152
S2144005A0184670470023FBE7024A13780133DBB254
S2144005B013707047670A40207047000000B583B04C
S2144005C001200B4B984701A941F27000094B984710
S2144005D0034618B1184603B05DF804FB019941F094
S2144005E00201019141F27000034B98470346F1E740
S2144005F015034000891C4000951C400008B5124B6E
S2144006001B784BB9114B1B78DBB2032B0CD00F4B2E
S2144006101B78DBB2042B07D00B4A13780133DBB2CE
S21440062013700023184608BD094B98470346002818
S214400630F8D145F2786141F27400064B984703467C
S2144006400028E9D0EEE700BF650A4020640A402053
S21440065005174000951C40001E4B1B7823B11D4AD1
S2144006601378013BDBB213701A4B1B78002B2ED14C
S214400670194B1B78DBB2032B06D0174B1B78DBB22B
S214400680042B01D0002323E000B583B00023019360
S21440069044F2213141F27400104B9847034618B19A
S2144006A0184603B05DF804FB01A901200C4B98479F
S2144006B003460028F4D1019911F0020FF0D021F042
S2144006C0020101910120054B98470346E8E70023C5
S2144006D018467047650A4020640A4020951C400032
S2144006E0891C40002DE9F04F87B007468846924661
S2144006F09946109CBDF84460BDF8485001F07F0311
S2144007008DF815308DF814000823ADF81630002CFF
S21440071000F09F80BDF8163016FA83F32B449BB248
S214400720ADF816305C4B98478346002840F0A280D0
S21440073000230393ADF806300293029B1F430297B3
S214400740029B43EA08230293BDF81620029B43EA25
S21440075002430293029941F28C00504B98478346DD
S214400760002840F0918000230293029B43F002034E
S2144007700293029941F27800484B984783460028F6
S21440078040F0828000230393ADF80630BDF8063073
S2144007909BB2B3F57A7F16D241F27808404F02A951
S2144007A04046B84778B9029B13F0020F59D0BDF8BF
S2144007B0063001339BB2ADF80630BDF806309BB22A
S2144007C0B3F57A7FEBD3039B002B61D0039B049356
S2144007D0BDF816309BB2ADF816300498082205A92D
S2144007E0304B9847834600284ED1049B08330493E9
S2144007F0BAF1000F0AD004984A465146294B98470A
S2144008008346002840D1049B4B4404937CB1049B10
S214400810A5EB09051D440495049832462146214B14
S2144008209847834600282FD1049B1E440496039B7A
S2144008309B000293029B43F002030293029941F20B
S2144008406C00164B98478346F0B9174B984783463B
S2144008501AE0BDF8163019FA83F39BB2ADF816309D
S21440086060E703A911480E4B98470028ABD00023F9
S2144008700393A8E740F29F120D490E480E4CA0473E
S2144008800E48A0470E48A047584607B0BDE8F08F30
S2144008906FF0020BF8E700BFFD054000951C4000D6
S2144008A0891C4000FD1C400059064000000415000D
S2144008B0FCAD4000CCAD40006945400050B0400023
S2144008C0F8AD40002DE9F04387B0DFF8F892A24F2C
S2144008D0A24EDFF8F482D5E0042204A90598A04B86
S2144008E09847BDF812309BB2ADF812300446002847
S2144008F030D1BDF812309BB29D4205D0BDF81230C3
S2144009009BB2EB1A042B33DC9DF81030DBB2012B84
S21440091047D09DF81030DBB2022B5FD09DF81030E8
S214400920DBB2042B68D09DF81030DBB2062B71D0BA
S2144009309DF81030DBB2072B7AD040F202224146B7
S2144009403046884CA0478848A0478848A0476FF064
S214400950050496E04FF4EB7241463046814DA84779
S2144009608348A8478148A8470120824B984788E09B
S21440097040F2DF12414630467A4CA047BDF812207E
S2144009809DF810309DF81110009192B229467A4891
S214400990A0477648A0470120764B98476FF005045D
S2144009A06FE0764B1B6843B19DF81100BDF81210FE
S2144009B00839059A083289B29847714B1B78002B44
S2144009C05CD140F2092241463046664CA0476D480D
S2144009D0A0476648A0476C4B98474FE06B4B1B6858
S2144009E0002BEAD09DF81100BDF812100839059A80
S2144009F0083289B29847E0E7654B1B68002BDCD08D
S214400A009DF81100BDF812100839059A083289B2CF
S214400A109847D2E75F4B1B68002BCED09DF811005D
S214400A20BDF812100839059A083289B29847C4E7CB
S214400A30594B1B68002BC0D09DF81100BDF8121012
S214400A400839059A083289B29847B6E740F211222B
S214400A5041463046434CA0475048A0474348A047ED
S214400A606FF001042FE04FF40672414630463D4C8D
S214400A70A04703994A48A0473C48A047494B984757
S214400A80044604BB99F80030002B00F09F8099F88C
S214400A900030013BDBB289F800301FE040F21E22F6
S214400AA0414630462F4DA8473F48A8472F48A847BD
S214400AB009E04FF40972414630462A4DA8473B4864
S214400AC0A8472A48A84740F2432239493046254D90
S214400AD0A84721463748A8472448A847B847044669
S214400AE00028E6D103A941F27000334B98470446EC
S214400AF00028D3D1039B13F0010FB4D01D4B984769
S214400B00039921F00101039141F270002B4B984765
S214400B1004460028D7D10022194B1A70039DC5F30E
S214400B208B05002D92D006A941F8042D41F2840091
S214400B30214B9847044600283FF4CEAE4FF4E77268
S214400B4041463046074DA8471D48A8470748A8478E
S214400B500120084B984794E7FD054000CCAD400087
S214400B60A11C400069454000BCAE4000F8AD4000C6
S214400B7064AE4000150340007CAE40007C0A402036
S214400B80660A4020D4AE4000BD054000700A4020B2
S214400B90740A4020680A4020780A4020F8AE400098
S214400BA00CAF40005906400028AF40004CAF400014
S214400BB010AE40006CAF4000891C4000951C4000C1
S214400BC03CAE4000670A402008AE4000002007B018
S214400BD0BDE8F0832DE9F04383B01C46002A18BFD9
S214400BE0002903D005460F461646B8B94CB1012237
S214400BF0324B1A70324B98470346184603B0BDE84E
S214400C00F08340F269222F492F48304CA0473048A5
S214400C10A0473048A0476FF00B03EEE7694641F225
S214400C2070002D4B984703460028E6D1DDF800803B
S214400C3001A941F28400284B984703460028DCD19E
S214400C40C8F38B0846451CD8019B9D4228D305EB2C
S214400C5006094344994523D83246394628461F4B11
S214400C60984703460028C8D1019A9044C84501D009
S214400C70002CC2D00122114B1A70114B98470346E4
S214400C80BBE740F27A220F490F48104CA047424635
S214400C9031461348A0470F48A0476FF00B03ACE718
S214400CA04FF4207207490848084CA0470D48A04713
S214400CB00848A0476FF00B039FE700BF660A402036
S214400CC0BD05400020AE4000CCAD40006945400028
S214400CD09CAF4000F8AD4000891C4000A11C40007D
S214400CE0BCAF400000B0400038B5431E062B1DD8B0
S214400CF0DFE803F00804100C1C141800134B1960AE
S214400D00002038BD124B1960002038BD114B1960C9
S214400D10002038BD104B1960002038BD0F4B1960BD
S214400D20002038BD0E4B1960002038BD044640F206
S214400D30B9220C490C480D4DA84721460C48A847F7
S214400D400C48A8476FF00B0038BD00BF700A402023
S214400D507C0A4020740A40206C0A4020680A4020E2
S214400D60780A40202CAE4000CCAD4000694540009B
S214400D7044B04000F8AD400010B50024094B1C605C
S214400D80094B1C60094B1C70094B1C70094B1C70AE
S214400D9009480A4B98470A4903200A4B9847204679
S214400DA010BD00BF7C0A4020700A4020650A4020E3
S214400DB0640A4020670A4020A9054000950240008A
S214400DC0B9054000E90C400030B59FB015462C28C8
S214400DD02ED004461B283BD0062849D00E2825D0C6
S214400DE0322855D02F2863D0342876D0112800F0EA
S214400DF09380132800F0A880042800F0B780652868
S214400E0000F0C680092800F0D5802A2800F0E4804B
S214400E10202800F0F3804FF4957286498648874D27
S214400E20A84721468648A8478648A8471FB030BDF1
S214400E300023042203A92846834CA0470028F5D166
S214400E40824B1B68002BF1D003A92C209847EDE776
S214400E500023082203A928467B4CA0470028E5D15A
S214400E607A4B1B68002BE1D003A91B209847DDE78F
S214400E700123302203A92846734CA0470028D5D129
S214400E80724B1B68002BD1D003A906209847CDE7AC
S214400E900023102203A928466B4CA0470028C5D142
S214400EA06A4B1B68002BC1D003A932209847BDE788
S214400EB06422002103A8664B98470023642203A9B6
S214400EC02846614CA0470028B0D1604B1B68002BD9
S214400ED0ACD003A92F209847A8E70023042203A9F3
S214400EE02846594CA0470028A0D15A48534CA04702
S214400EF00399CBB20093C1F30723C1F30742090E0F
S214400F005548A0474F48A047504B1B68002B8DD0F4
S214400F1000213420984789E70023504A1370042262
S214400F2003A92846484CA04700287FF47FAF9DF889
S214400F300C204B4B1A70454B1B68002B3FF476AF8A
S214400F4003A91120984771E700232C2203A92846BD
S214400F503D4CA04700287FF469AF3C4B1B68002BF4
S214400F603FF464AF03A9132098475FE700230422A9
S214400F701CA92846344CA04700287FF457AF334B73
S214400F801B68002B3FF452AF1CA9042098474DE73E
S214400F90002304221CA928462B4CA04700287FF497
S214400FA045AF2A4B1B68002B3FF440AF1CA9652079
S214400FB098473BE70123642203A92846224CA047D2
S214400FC000287FF433AF214B1B68002B3FF42EAF35
S214400FD003A90920984729E70123042203A92846A4
S214400FE0194CA04700287FF421AF184B1B68002BF4
S214400FF03FF41CAF03A92A20984717E7002308228E
S21440100003A92846104CA04700287FF40FAF0123C1
S214401010BDF81020039905F10800A04700287FF48A
S21440102005AF0A4B1B68002B3FF400AF03A92020F6
S2144010309847FBE690B04000CCAD40006945400084
S214401040ACB14000F8AD4000D50B4000800A4020CF
S2144010508105400080B140008CB14000850A4020A8
S214401060840A402010B5002838D00446504B984794
S214401070002840D020464E4B984720283BD894F82E
S21440108021300D2B44D894F8413033B994F842308F
S2144010901BB994F84330002B47D094F83F30012BCF
S2144010A000F08480032B74D194F82230013BDBB2ED
S2144010B0032B47D894F8233003F0EF030A2B4ED186
S2144010C0243459D020463A4B9847002854D02046DE
S2144010D0374B98471A284FD8002010BD40F243128D
S2144010E034493548354CA0473548A0473548A04791
S2144010F06FF00B0010BD4FF4A5722E492E482F4CB2
S214401100A0473148A0472F48A0476FF00B0010BDBE
S21440111040F2511227492848284CA0472B48A04760
S2144011202848A0476FF00B0010BD4FF4AD72214920
S2144011302148224CA0472648A0472248A0476FF0A7
S2144011400B0010BD40F269121A491B481B4CA047C1
S2144011502048A0471B48A0476FF00B0010BD4FF437
S214401160B97214491448154CA0471B48A047154867
S214401170A0476FF00B0010BD40F279120D490E48A3
S2144011800E4CA0471548A0470E48A0476FF00B00EE
S21440119010BD4FF4C07207490748084CA047104896
S2144011A0A0470848A0476FF00B0010BD002010BDB8
S2144011B08F0540009CB04000CCAD400069454000E3
S2144011C0DCB04000F8AD4000F0B0400000B1400058
S2144011D00CB1400024B1400038B140004CB1400052
S2144011E060B14000F0B58BB001238DF80730002881
S2144011F050D00268294B1A600022294B1A700DF114
S2144012000700284B9847044610B120460BB0F0BD67
S214401210254B98470446002838D124490120244BC2
S214401220984702A8234B98470446234F3846234DF9
S214401230A8479DF80E309DF80D209DF80C102048CC
S214401240A847204E3046A8473846A8479DF8113054
S2144012509DF810209DF80F101B48A8473046A84719
S2144012603846A8470023032213211848A84730468B
S214401270A84714F10D0FC8D140F2D51214491548AD
S214401280A8471548A8473046A847BEE70020134B56
S2144012909847BAE76FF00B04B7E700BF800A4020D4
S2144012A0850A4020091E4000790D4000C90D4000C7
S2144012B0E90C4000591D400080B14000694540009F
S2144012C06CB24000F8AD400088B24000A4B2400086
S2144012D0B8B04000CCAD4000C0B24000D51E400083
S2144012E008B5014B984708BDC50840002DE9F041B8
S2144012F0A0B080460D4614461E46BDF89870012A9A
S21440130003D0002B37D0022A42D06B1EDBB21F2BF5
S21440131075D8FF2F01D00D2F7ED82A4641460DF1B5
S2144013205A00774B984720AB1D44002305F8263CCF
S214401330ADF858709DF89C30003318BF01238DF8E7
S2144013407B308DF85540032C73D0022C00F0AA80D9
S214401350042C00F0C180012C40F0C480002302938E
S214401360019300936C2305AA28210120654CA047D1
S21440137020B0BDE8F08140F2032263496348644CE4
S214401380A0476448A0476448A0476FF00B00EFE7CB
S2144013901846624B98474028B7D13378A3F13A02B3
S2144013A0D2B2062A1ED9A3F13002D2B2362A19D8B2
S2144013B0473BDBB2192B15D9314606F13F0011F8F1
S2144013C0013FA3F13A02D2B2062A0BD9A3F130026A
S2144013D0D2B2362A06D8473BDBB2192B02D988420E
S2144013E0EDD192E740F20F2247494848484CA04783
S2144013F04B48A0474848A0476FF00B00B8E740F27C
S214401400192241494148424CA0474648A0474248D5
S214401410A0476FF00B00ABE740F222223A493B4828
S2144014203B4CA0474048A0473B48A0476FF00B00C6
S2144014309EE73378013BDBB28DF81430032B13D88C
S2144014407278531E8DF8153002F0EF030B2B1AD12D
S214401450B11C0DF116002A4B9847737820AA134406
S214401460002203F86A2C79E740F2392226492748B9
S214401470274CA0479DF814102C48A0472648A04764
S2144014806FF00B0074E74FF410721F491F48204C52
S214401490A0479DF815102648A0471F48A0476FF064
S2144014A00B0065E730461D4B9847431E9BB23F2BCB
S2144014B005D8421C314605A8114B98474EE740F2E6
S2144014C04F2211491148124CA0471A48A0471248CB
S2144014D0A0476FF00B004BE73E22314605A8084B6D
S2144014E098473BE740F25F2207490848084CA04728
S2144014F01148A0470848A0476FF00B0038E700BFE8
S2144015006D054000E5064000C8B04000CCAD400048
S21440151069454000C0B14000F8AD40008F0540002E
S214401520D4B14000E4B14000F8B1400004B24000FD
S21440153020B240003CB2400058B2400010B582B0E5
S21440154000240194BDF810400094024CA04702B01D
S21440155010BD00BFED12400010B586B00622014611
S21440156004A8074B9847002302930193009308234F
S21440157004AA02210120034CA04706B010BD00BFBC
S2144015806D054000E50640000020704738B504462B
S2144015900D46084B9847034608B1184638BD2946BD
S2144015A02046054B984703460028F6D1034B9847FC
S2144015B00346F2E7FD054000711B40005906400017
S2144015C010B50446074B9847034608B1184610BD69
S2144015D02046054B984703460028F7D1034B9847CB
S2144015E00346F3E7FD054000011C40005906400055
S2144015F010B590B0302928BF30214A1CD2B20146DF
S21440160004A8074B98470023029301930093302386
S21440161004AA07210120034CA04710B010BD00BF0C
S2144016206D054000E5064000002836D070B5A8B0ED
S214401630044616460D461A4B984718B16FF00B00F5
S21440164028B070BD4822214605A8164B9847284624
S214401650154B9847A5B198B14022294617A8114B7B
S21440166098478DF89C600023104A137002930193AC
S21440167000938C2305AA882101200D4CA047DFE764
S21440168040F24A420B490C480C4CA0470C48A04735
S2144016900C48A0476FF00B00D2E76FF00B00704786
S2144016A0651040006D0540008F054000850A4020CB
S2144016B0E506400070B04000CCAD400069454000B3
S2144016C0DCB24000F8AD4000F0B583B004464FF4BD
S2144016D0A5550A4E0A4F21462846B04754B102A99E
S2144016E0002341F8043D2846B8470028F3D1019B23
S2144016F09C42F0D1002003B0F0BD00BF951C4000D6
S214401700891C40002DE9F04F83B001203C4B9847A0
S21440171001A901203B4B9847824638B900244FF038
S2144017200108DFF80891364D374F20E072223749DE
S2144017303748384CA0473848A0473848A04709E0C3
S214401740962232493248334CA0473548A047334862
S214401750A047B246504603B0BDE8F08F019941F02D
S21440176002014046C847009B13F0040FF2D101998E
S21440177041F002014046C8474046A8476946294BC3
S2144017801868204B984708B9009BBBB9254E0E23D6
S21440179033604046A847694630681A4B984708B9B0
S2144017A0009B5BB91F4E132333604046A8476946EB
S2144017B03068144B984706460028C1D1194E009B06
S2144017C013F0040FC6D10134A7FB04235B0803EBD8
S2144017D043039C42C2D10220A84769463068094B61
S2144017E09847009B13F0040FE9D1AA2207490848FE
S2144017F0DFF820B0D8470C48D8470848D847DEE737
S214401800C9014000891C4000ABAAAAAAF4B2400015
S214401810CCAD40006945400064B34000F8AD4000A0
S21440182084B3400010004020A4B34000951C400004
S21440183000B583B001A941F20840154B9847E8B976
S214401840019941F48071019141F20840114B98474B
S214401850B8B901A94FF4D0500D4B9847A0B901999B
S21440186041F4803101914FF4D0500A4B98470028FC
S21440187018BF6FF0050003B05DF804FB6FF005007D
S214401880F9E76FF00500F6E76FF00500F3E700BFF5
S214401890891C4000951C400010B582B0254B1C6842
S2144018A024B1244B1C68204602B010BD19464FF4A4
S2144018B08050214B984718B100221E4B1A60F2E721
S2144018C001A941F2F4301C4B984718B10022194B3D
S2144018D01A60E8E7174B1B68184A93420DD0184A1F
S2144018E0934211D0174A934218D0124A136823F4F1
S2144018F0702343F4A0231360D3E7019B012BF4D05D
S21440190001320C4B1A60F0E7019B032BEDD0042B01
S2144019100CBF01320C4A074B1A60E6E705494FF404
S2144019206C10054B98470028DFD00022014B1A6008
S214401930B9E700BF880A4020891C4000A00210007A
S214401940B0021000F0001000B20210002DE9F04185
S214401950074641F21405284C284E2846A047002842
S21440196002DB0120B047F8E72548234B984710F0A4
S214401970010F10D1DFF884801F4E224D0120C04752
S2144019804FF00C10B04704462A4601461E481F4BEF
S2144019909847AC42F2D1022F19D0032F22D0042F01
S2144019A014BF002480241A4B9847C0F30B00B0F5B0
S2144019B0687F0CBF44F002002046164B98471649F5
S2144019C04FF00C10154B98470020BDE8F0811449A5
S2144019D01448124CA0474FF4801141F28C00A047A7
S2144019E00024E0E70E490F480C4CA047002141F286
S2144019F08C00A0470024D6E77D1C4000C90140006B
S214401A00BC0702009ED0AD10C8B3400069454000F8
S214401A1099184000C9164000612F52EF951C4000AF
S214401A207DD51C3CAC070200F0B583B041F28C0378
S214401A300193184B00930238C0B2012811D94FF0D9
S214401A40FF3400200227144E144D009B984212D0BB
S214401A503846B0470198A847013CF6D16FF00400DD
S214401A600EE00F4B0193A3F12253A3F51113A3F2FB
S214401A70E9530093E3E7009A064B9A4202D00020CF
S214401A8003B0F0BD002141F28C00064B9847002081
S214401A90F6E700BF36265302C90140007D1C4000D1
S214401AA0AC070200951C4000F0B583B002A90023A5
S214401AB041F8043D4FF4A050244B984720BB019971
S214401AC021F4806101914FF4A050214B9847054680
S214401AD028BB0A241D4E1E4F01A94FF4A050B04704
S214401AE0054638BB019911F4806F0AD021F4806115
S214401AF001914FF4A050B8470546631E13F0FF040B
S214401B00EAD1284603B0F0BD40F2312211491248CE
S214401B10124CA0471248A0471248A047CFE740F2D1
S214401B2037220C490C480D4CA0470F48A0470D489B
S214401B30A047E6E740F23E2206490748074CA04742
S214401B400A48A0470748A047DBE700BF891C40007B
S214401B50951C400004B34000CCAD400069454000B1
S214401B6010B34000F8AD40002CB3400048B34000EE
S214401B7070B586B006460C4600230193029305A92D
S214401B8019481A4B9847054628B10CB100232370D4
S214401B90284606B070BD082201A9059840F440309A
S214401BA0134B984705460028EFD101980590114BF6
S214401BB003402BB90622002130460F4B9847E4E7F6
S214401BC0000C0590062203A940F44030084B984785
S214401BD00546062203A93046084B9847002CD7D026
S214401BE001232370D4E700BF08000C00891C400086
S214401BF0A11C40000000FFFF810540006D0540002D
S214401C0030B587B0054600230193029305A91148D5
S214401C10114B9847044610B1204607B030BD082205
S214401C2001A9059840F440300C4B984704460028DC
S214401C30F2D1BDF804000590062203A940F44030D6
S214401C40064B98470446062203A92846044B984765
S214401C50E2E700BF08000C00891C4000A11C4000C1
S214401C606D05400008B5014B984708BD3D03400050
S214401C7008B5014B984708BD2D05400008B5014BF7
S214401C80984708BDD124400008B5014B984708BD89
S214401C90E924400008B5014B984708BD012540009F
S214401CA02DE9F047074689461546124BB3F80080A3
S214401CB0A8F108081FFA88F8424519D94446002674
S214401CC0DFF834A0424609EB06013846D0470346C3
S214401CD058B92D1B26442744A542F3D8AAB209EB8F
S214401CE006013846044B984703461846BDE8F08739
S214401CF00026F3E70C0040202D2640002DE9F04753
S214401D00074689461546124BB3F80080A8F10808E6
S214401D101FFA88F8424519D944460026DFF834A011
S214401D20424609EB06013846D047034658B92D1BB4
S214401D3026442744A542F3D8AAB209EB0601384602
S214401D40044B984703461846BDE8F0870026F3E75D
S214401D500C004020F526400030B583B0044602A96A
S214401D60002341F8043D2448244B98470546019AF1
S214401D70234B9A4239D0019B1A0C91B2080AE07163
S214401D80C1F30311217202F00F0262729AB2110A75
S214401D902171C2F30312627103F00F03A371194B52
S214401DA0984720602279A37903F00F0343EA022381
S214401DB062791201D2B21343E179627A02F00F02DD
S214401DC042EA0122217A0901C9B20A4341F230317E
S214401DD08A4288BF6FF00C0541F22F3293428CBF87
S214401DE028466FF00C0003B030BD01A941F2480010
S214401DF0024B98470546BEE7AC070200891C4000E8
S214401E00C3C15DD79918400038B5002837D004784C
S214401E10631EDBB2042B28BF012400201E4B9847CC
S214401E20054600282DD11D481D4DA8471D4B9847F7
S214401E3001461D48A8471D48A8471D4B98472046C1
S214401E401C4B98470546B0B920461B4B984705465D
S214401E5088B9023CE4B2012C0FD9184B9847054686
S214401E6058B14FF4AE72164916480D4CA047164866
S214401E70A0470E48A047154B9847284638BD012432
S214401E80CBE74FF492720E490E48054CA0471048D7
S214401E90A0470648A047F0E7651C400080B14000D8
S214401EA0694540009918400090B44000F8AD4000A5
S214401EB0192540004D194000291A400031184000AD
S214401EC0D8B34000CCAD400054B44000711C400034
S214401ED074B4400038B5194B984758B90020184B91
S214401EE09847044698B9174B98470446D0B9164BBE
S214401EF098470AE004464FF4BA7214491448154D00
S214401F00A8471548A8471548A847204638BD40F278
S214401F107B120E490E480F4DA8471148A8470F4858
S214401F20A847F2E740F2811208490948094DA847F8
S214401F300C48A8470948A847E7E700BFA91A400049
S214401F40B92F4000711C4000C5244000E4B3400057
S214401F50CCAD400069454000F4B34000F8AD4000C9
S214401F6014B4400038B4400000B585B00023019357
S214401F700290ADF80C1001A90320024B984705B01B
S214401F805DF804FB590440002DE9F04182B0054657
S214401F9000F13B03DBB2012B27D9CF2825D00B24F9
S214401FA04FF00108234F41460DF10700B84706465B
S214401FB020BB9DF80730AB422CD0631E13F0FF04C5
S214401FC0F1D10B2401271B4D39460DF10700A847D8
S214401FD010BB9DF8073053B3631E13F0FF04F3D1D4
S214401FE00126304602B0BDE8F08101210DF1070020
S214401FF0104B98470028D2D00026F2E740F227122E
S2144020000D490E480E4CA0470E48A0470E48A04724
S2144020100026E6E70B24D5E740F235120649074886
S214402020074CA0470748A0470748A047D9E70126DE
S214402030D7E700BF691F4000A8B44000CCAD4000C1
S21440204069454000E8B84000F8AD40002DE9F04F43
S21440205085B083468A4617464FF00009374D27E03D
S21440206040F2571236493748374CA0473748A047C2
S2144020703748A04700230193019805B0BDE8F08F8C
S214402080002C2EDD41460BEB0900A84704460028ED
S21440209034D11FB92F4B1B78002B3AD0C1440FFACE
S2144020A089F9AAEB080A1FFA8AFABAF1000F41D05A
S2144020B0D046BAF5005F28BF4FF400580A240126E0
S2144020C031460DF10B00A84701900028C8D19DF875
S2144020D00B301B090F2BD3D0013C24B2B4F1FF3F89
S2144020E0EED140F2631216491648174CA0479DF8A9
S2144020F00B101948A0471648A047BDE74FF4B672E4
S2144021000F491048104CA0471448A0471048A04715
S214402110B2E7022103A8A8470028BFD040F27712B2
S21440212007490848084DA8470D48A8470848A84703
S2144021300194A1E7012301939EE700BF691F400079
S214402140B4B44000CCAD4000694540001CB94000E6
S214402150F8AD40008C0A402050B9400080B940009D
S214402160B4B9400000B585B0019000230293ADF8A5
S2144021700C1001A90320024B984705B05DF804FBFC
S2144021805904400070B584B09DF820408DF8040096
S214402190C1380E2800F2A280DFE800F045456619F7
S2144021A02A3354547F08A0A0A0A03C000B0C8DF806
S2144021B005300B0A8DF806308DF807100521554B73
S2144021C01B78002B00F08C800139C9B29AE0C1F32D
S2144021D0072344B98DF805308DF8061000238DF896
S2144021E007300521EBE763F07F038DF80530F3E712
S2144021F000238DF805308DF806308DF80730052120
S214402200DDE700238DF805308DF806308DF8073071
S2144022100521D4E7FF238DF805308DF806308DF87C
S21440222007300521CBE70A0C8DF805200A0A8DF801
S21440223006208DF807101A0A8DF808208DF8093008
S2144022400721BCE70A0C8DF805200A0A8DF80620FF
S2144022508DF807101A0C8DF808201A0A8DF80920F8
S2144022608DF80A300821AAE7C1F3072384B98DF810
S21440227005308DF80610130E8DF80730130C8DF8C8
S2144022800830130A8DF809308DF80A20082196E7A1
S21440229063F07F038DF80530EBE70B0C8DF80530C7
S2144022A00B0A8DF806308DF80710130E8DF808309F
S2144022B0130C8DF80930130A8DF80A308DF80B2070
S2144022C009217CE74FF4847213491448144CA04704
S2144022D01448A0471448A047002019E0002017E003
S2144022E04E1E01AB9D197F201A46104C12F8013B3A
S2144022F083EA4003E05C9542F8D104AB1E444300B9
S21440230006F80C3C01A80A4B98470028DAD1012071
S21440231004B070BD8C0A4020A0B44000CCAD400054
S21440232069454000BCB84000F8AD40001CB54000D0
S2144023306521400070B582B00446312835BF012380
S2144023400023C325C925009304230A460146284690
S214402350154EB04701280DD040F2EB1213491448F1
S214402360144DA84721461448A8471448A8470020BB
S21440237002B070BD2846124B98470128F8D040F26C
S214402380F1120A490A480B4DA84721460D48A8476E
S2144023900A48A84700240094234622462146CF20D8
S2144023A0014DA8472046E3E785214000D4B44000CD
S2144023B0CCAD4000694540006CBA4000F8AD4000E6
S2144023C0891F400098BA40002DE9F04184B0044689
S2144023D08846B0F5807F35BF01260026C425CA252D
S2144023E0009604230022014628462C4FB847012871
S2144023F00ED040F245222A492A482B4DA84721466E
S2144024002A48A8472A48A847002004B0BDE8F081DB
S2144024102846284B9847012814D040F24B222049A2
S2144024202048214DA84721462348A8472048A8478A
S21440243000240094234622462146CF20174DA84725
S2144024402046E2E73246042103A81C4B9847012861
S21440245010D19DF80D209DF80E301B0443EA022350
S2144024609DF80C2013439DF80F2043EA0263C8F8FA
S2144024700030CAE740F2532209490A480A4CA047AE
S2144024800F48A0470A48A047002400942346224607
S2144024902146CF20014DA8472046B6E7852140007B
S2144024A0F4B44000CCAD400069454000ECB9400073
S2144024B0F8AD4000891F400018BA40004D2040004B
S2144024C04CBA40000020014B187070478C0A4020E0
S2144024D000B583B001A9034B9847019803B05DF857
S2144024E004FB00BFC923400008B5044B98470128A9
S2144024F00CBF00206FF0050008BD00BFC923400098
S21440250008B5044B984701280CBF00206FF0050023
S21440251008BD00BF3523400030B583B0002302A974
S21440252041F8083D344A13704EF62400334B984722
S21440253048B3314B1B787BB9009921F07C0141F0C0
S214402540500100914EF624002D4B98470446002833
S21440255039D00122284B1A7001A94FF48050274BDE
S214402560984700283AD04EF62400264B984720F04D
S214402570700141F050014EF62400234B984700244A
S214402580204603B030BD01221B4B1A7040F2C522D4
S2144025901E491F481F4CA0471F48A0471F48A0473A
S2144025A069464EF62400154B984704460028C0D18D
S2144025B04FF4327215491648164DA8471848A84792
S2144025C01648A847DCE740F2D22210491048114D81
S2144025D0A8471448A8471148A847D1E74FF4377290
S2144025E00A490B480B4CA0470F48A0470B48A0474A
S2144025F06FF00504C4E700BF8C0A4020C9234000A2
S21440260035234000D12440000125400010B540004D
S214402610CCAD4000694540001CB64000F8AD4000D7
S2144026206CB640009CB64000D0B64000F0B583B0D3
S21440263004460F461546002200922B460146C82007
S214402640224EB04701280ED04FF41D722049214833
S214402650214DA84721462148A8472148A8476FF062
S214402660050003B0F0BDC8201E4B9847012812D085
S21440267040F27A2216491748174DA84721461A486D
S214402680A8471748A847002100910B460A46CF2086
S2144026900E4CA047E3E7002229463846134B98479E
S2144026A0012811D04FF4217209490A480A4CA04724
S2144026B00F48A0470A48A047002100910B460A460B
S2144026C0CF20024CA047CAE70020CAE78521400039
S2144026D004B54000CCAD400069454000F8B6400027
S2144026E0F8AD4000891F400028B740004D2040000C
S2144026F060B740002DE9F04385B00446884615464D
S214402700002200922B460146C7204D4EB047012876
S2144027100FD040F20F224B494B484C4DA84721461C
S2144027204B48A8474B48A8476FF0050005B0BDE8A2
S214402730F083C720484B9847012812D040F2152214
S21440274040494148414DA84721464448A84741484A
S214402750A847002100910B460A46CF20384CA04798
S214402760E2E70024ADF80C403D4FDFF80C911DE049
S214402770B5F5005F94BF0323022363F00F038DF883
S2144027800B3001210DF10B00B847E8B9314608EB94
S2144027900400B847002835D199F80030002B3CD0CB
S2144027A0344424B2AD1BADB2002D46D02E46B5F50E
S2144027B0005F28BF4FF40056002CD9D1B5F5005F16
S2144027C094BF03230123D8E74FF4D47225491E480B
S2144027D01E4CA0472448A0471E48A04740F2262249
S2144027E018491948194CA0472048A0471948A047FF
S2144027F000240094234622462146CF20104DA84769
S214402800204693E740F2B11216490F480F4CA047B6
S2144028101748A0470F48A047E0E7022103A8B8475B
S2144028200028BDD040F2BB120E490748074CA047CF
S2144028301048A0470748A047D0E7002076E700BFEB
S21440284085214000E4B44000CCAD400069454000DE
S21440285088B74000F8AD4000891F4000B8B7400038
S21440286065214000C4B44000F0B7400094B8400032
S21440287028B840005CB840008C0A40202DE9F84F4C
S214402880BDF8284094B181460E46924698460301CC
S2144028902249CB5853B101EB00139B889BB22BB116
S2144028A001EB00139B7ADBB2012B01D0BDE8F88F19
S2144028B0F48001EB0017DFF87CB006E025460123E4
S2144028C00BE0641BA4B2A844ECB1BB88E31A1BB26D
S2144028D0002BF3DDBD88ADB2002339682A4640465A
S2144028E0D84790B93B683360B580F3885B1BF3806C
S2144028F00B4B1B68002BE4D0094B1B6832465146F5
S21440290048469847DDE7BDE8F88F0648064DA84795
S21440291021460648A8470648A847C7E7C4104020AF
S2144029207411402080B1400069454000D0BA400054
S214402930F8AD4000D50B4000F0B599B0144641289C
S21440294049D00D4642285FD0432875D0442800F031
S214402950B0804B2800F0AD804A2800F0CC80A0F133
S2144029604603DBB2072B00F2F480852222FA03F3FB
S21440297013F0010F00F0ED80482814BF0627092702
S2144029800023102203A92046934EB047002840F06B
S214402990B0809DF91800BDF81A10904A02EB00125C
S2144029A000231373BDF914E0BDF81630BDF80E6071
S2144029B0ADF82660049E0A96D28892B2914200F004
S2144029C0AC80102D40F2958001230022114610461F
S2144029D0814CA0478DE00023042207A920467E4C68
S2144029E0A047002840F085809DF81D308DF80C30BB
S2144029F07B4B1B68002B7CD0794B1B6803AA0121BC
S214402A009DF91C00984774E00023042207A920463D
S214402A10714CA04700286CD19DF81D308DF80C30C5
S214402A206F4B1B68002B64D06D4B1B6803AA0221BA
S214402A309DF91C0098475CE000230C220DEB020138
S214402A402046654CA047002853D19DF91530002BF1
S214402A5019DB624A02EB03120021D1720121917206
S214402A6060490A88013292B20A800A8892B21AB93C
S214402A700A88013292B20A805A4A118889B2574A65
S214402A8002EB0312D1808DF81C300223ADF82030C3
S214402A90BDF80E30ADF82230049B0993504B1B68AE
S214402AA03BB34F4B1B6807AA04219DF91400984777
S214402AB01FE00023042207A92046474CA047C0B980
S214402AC09DF91C008DF80C009DF91D308DF80D30D9
S214402AD03BB9BDF81E30083B9BB2404A02EB0012A1
S214402AE013813F4B1B6823B13D4B1B6803AA05214E
S214402AF0984719B0F0BD0023442207A92046364C1B
S214402B00A0470028F5D1384B1B68002BF1D0364B38
S214402B101B68179907A89847EBE7BEF1000F01DD41
S214402B20AE450DDBADF820E0002307932C4B1B6829
S214402B30002BDED02A4B1B6807AA39469847D8E7B1
S214402B401FFA8EF2009223443A4607A9274CA04724
S214402B50CFE700F0FD03452B19D04C2817D052285C
S214402B60C7D10123142207A920461B4CA0470028A2
S214402B70BFD11F4B089A1A601B68002BB9D01C4B5C
S214402B801B689DF82C20099907989847B1E7472875
S214402B9014BF072508250023082207A920460E4C07
S214402BA0A0470028A5D19DF91C00BDF82020BDF8FF
S214402BB01E30ADF80C30094B03EB0013DB889BB29C
S214402BC09A4296D1064B1B68002B92D0044B1B684A
S214402BD003AA294698478CE7D50B4000C4104020EE
S214402BE0741140208E0A40207C1140207D284000F1
S214402BF07811402008B50A4B1B7803B108BDB022B7
S214402C0000210848084B984708490220084B984737
S214402C100122034B1A700022064B1A80EEE700BFD3
S214402C208D0A4020C41040208105400039294000CC
S214402C30E90C40008E0A4020024B1860024B196097
S214402C40704700BF741140207C114020F0B587B01B
S214402C50022858D1012959D0022916D10B2607241B
S214402C6025462E4B03EB04139B7A002B51D0631C56
S214402C70DBB22A4FDCB2B44240D21D4607EB03110A
S214402C80897A581C21B10346F4E74FF0FF3437E009
S214402C90224800EB0310164610220021204B98478E
S214402CA01E4B03EB051301229A721E4A138801330A
S214402CB09BB2138013889BB21BB9138801339BB217
S214402CC01380184B1A8892B2144B03EB0513DA8024
S214402CD064B216F0010F13D006AA02F8044D0F4B4B
S214402CE003EB05152123EB72002302930193009317
S214402CF00423502102200C4DA84701E04FF0FF343A
S214402D00204607B0F0BD4FF0FF34F9E70726002411
S214402D10A6E7024800EB0410BDE700BFC410402001
S214402D20810540008E0A4020E506400030B589B057
S214402D30041E36DB002934D01D4B03EB04139B7A6C
S214402D40DBB2002A30D0012B2ED1194B03EB0413F3
S214402D50DB7A13F0010F22D0154B03EB0413DB7A1A
S214402D608DF81D304B258DF81C40082205A8114BC8
S214402D7098470F4800EB0410C388ADF81E30002378
S214402D800293019300930C2305AA294602200A4C7D
S214402D90A047002818BF6FF0080009B030BD442592
S214402DA0E1E76FF00500F8E76FF00500F5E700BFD4
S214402DB0C41040206D054000E506400030B589B09F
S214402DC00C46003118BF0121B2F5AF6F88BF002115
S214402DD0002937D0002835DB1D4B03EB00139B7AC8
S214402DE0DBB2012B31D18DF81000ADF81220184B14
S214402DF003EB0013DB88ADF81C300728B4BF502522
S214402E004425134B03EB0013DB7A13F0010F17D066
S214402E100F4B03EB00100589ADB24C210295019291
S214402E20009410230DEB030241F080010220094C70
S214402E30A04700280CBF00206FF00D0009B030BD41
S214402E404521EBE76FF00500F8E76FF00500F5E782
S214402E50C4104020E5064000002918BF002A44D090
S214402E6070B586B00E461546002836DB204A02EB83
S214402E700012927AD2B2012A32D11D4C0101621858
S214402E8066509580127B002A2DD104EB001201215A
S214402E901173D27A0A40002A0CBF46214D21D3B97D
S214402EA04FF0FF3304938DF81400114B03EB0010E2
S214402EB0C388ADF81630002302930193009308238D
S214402EC004AA02200B4CA04700280CBF00206FF03D
S214402ED00D0006B070BD0493E5E76FF00500F8E717
S214402EE06FF00500F5E70020F3E76FF00500704748
S214402EF0C4104020E506400030B587B0041E2FDBE6
S214402F001A4B03EB04139B7ADBB2012B2BD18DF8C3
S214402F101440164B03EB0413DA88ADF81620002253
S214402F209A72DA80DB7A03F00103934202920192AE
S214402F3000924FF0040305AA0CBF49214E210220FF
S214402F400B4DA847051E18BF6FF00805102200213C
S214402F50064800EB0410074B9847284607B030BD9C
S214402F606FF00505F9E76FF00505F6E7C410402059
S214402F70E50640008105400010B584B004460C4B81
S214402F809847C3B2402B0FD800220292019200927B
S214402F9001332246CA210220064CA047002818BF0B
S214402FA06FF0080004B010BD6FF00500FAE700BFF0
S214402FB08F054000E506400070B582B005462B4BB5
S214402FC09847C0F30B00B0F5687F03D20024204634
S214402FD002B070BD01A941F21040254B9847044607
S214402FE00028F4D1234B019A1340234919430191F9
S214402FF041F21040214B984705B3002120481F4D11
S214403000A847AB211F48A84701211F48A8470021D1
S2144030101E48A84781211E48A8471E4E1E4D3046D2
S214403020A8470128FBD11349019B194041F4803140
S214403030019141F21040114B9847C8E700211048D3
S2144030400E4DA847B9210F48A84701210E48A8476A
S21440305000210E48A84781210D48A8470D4E0E4D29
S2144030603046A8470128FBD1DDE700BF991840004D
S214403070891C4000FF8F88F800101101951C400005
S214403080080201000C020100140201001C020100AB
S21440309004020100180201007D1C400010B51048D3
S2144030A0104B98473E2100200F4B98470F4CA047A7
S2144030B00028FCD00E4B98470E4A0F4B9A620F4C96
S2144030C0A0470028FCD002200D4B984700200D4B0F
S2144030D098470D4B98470248024B984710BD00BF93
S2144030E000A3E111193D4000E1374000353840006B
S2144030F045384000013F182000060E405538400035
S214403100453740007D3740000D3C40002DE9F041FA
S21440311080B90C469046002A0FDD8F18084E094DA0
S214403120306821462B6898470134BC42F8D1404667
S214403130BDE8F0814FF0FF38F9E78046F7E700BF7B
S21440314088114020801140200138022815D82DE9EA
S214403150F0410E4614469AB10D46DFF838800C4FC3
S214403160D8F8000015F8011B3B68984700280ADB92
S214403170A81B013CF4D1BDE8F0814FF0FF3070470A
S2144031801046BDE8F0814FF0FF30BDE8F08100BF4B
S2144031908411402088114020F8B54FF400425C4B23
S2144031A05A60BFF34F8FBFF36F8F5A4B0022C3F85E
S2144031B050225A6942F400325A61BFF34F8FBFF330
S2144031C06F8FD3F88070C7F34E3607F00700043091
S2144031D0C7F3C907B7FA87FE0EF01F0EBFF34F8F2F
S2144031E04FF0FF3404FA00FC06FA00F004FA0EF43E
S2144031F007FA0EFE1D463A46734640EA0301C5F8F6
S2144032006012013A2344B2F1FF3FF6D1013E6044DA
S214403210B6F1FF3FEFD1BFF34F8F3E4B5A6942F4B2
S21440322080325A61BFF34F8FBFF36F8F3A4A3B49A4
S2144032305160A1F580715160BFF34F8FBFF36F8F20
S214403240D3F8902222F00102C3F89022D3F89422B9
S21440325022F00102C3F89422BFF34F8FBFF36F8F63
S2144032600A202F4CA0470B20A0470C20A047102038
S214403270A0471120A0472B4B4FF480721A61C3F829
S214403280A0201A63A3F580634FF400625A61C3F826
S214403290A0205A66C3F890205A651A62C3F8842064
S2144032A0196F21F400611967596F21F4006159675D
S2144032B0C3F8C020C3F8D420C3F8B0204FF400129F
S2144032C01A66C3F890205A655A62C3F88020196F70
S2144032D021F400111967596F21F4001159675A609B
S2144032E0114AD2F8143143F01003C2F814310F4B90
S2144032F010221A66C3F890205A655A62C3F8802096
S214403300196F11431967596F114359675A60F8BDD1
S21440331050180E4000ED00E0000C0E400C08005A1D
S2144033206538400000120E400080084000100E40F5
S2144033300AB901667047416670474264B1F1C05FA2
S2144033403AD013D8B1F1006F25D0B1F1805F0AD1E1
S214403350036F13430367436F416F0B4023EA020337
S2144033604367426070470029FBD17047B1F1205F48
S21440337021D009D8B1F1005FF3D1036F134303673F
S214403380436F13434367ECE7B1F1405F13D0B1F1AD
S214403390605F10D0E5E710B4016F046FD34321405F
S2144033A01C4619400167436F416F0B4023404367FB
S2144033B042605DF8044B7047036F016F0B4023EA91
S2144033C002030367436F13434367CAE7416412F03F
S2144033D0010F0DD1016612F00A0F0BD0016212F0F8
S2144033E0020F09D112F0080F08D0C0F8841005E08B
S2144033F04166F0E74162F2E7C0F880104161016043
S214403400704710B4019C41644CB901664BB10165EC
S2144034104AB94163016101605DF8044B70474166FB
S214403420F4E74165F4E70163F4E712F0100F12D0B9
S214403430C0F8B01012F0200F07D0C0F8D41012F029
S214403440400F05D0C0F8C0107047C0F8D010F6E75F
S214403450C0F8C4107047C0F8B41070470164704795
S21440346041647047C06C7047806C704770B582B0DE
S2144034700D46464C04EB5014640201F0F043B3F1A1
S214403480005F59D00AD8B3F1805F2FD0B3F1C05F48
S2144034903FD0B3F1006F16D0002012E0B3F1405F8A
S2144034A05DD0B3F1605F5AD0B3F1205FF4D100F045
S2144034B01F0101262A4606FA01F12046344B98475A
S2144034C0304602B070BD00F01F00012686403246EE
S2144034D04FF0006120462F4B984715F0010F02D160
S2144034E026660120EDE766660120EAE700F01F0049
S2144034F00126864032464FF080512046254B98475D
S21440350015F0010F02D126660120DAE76666012033
S214403510D7E700F01F000126864032464FF0C051E4
S21440352020461C4B984715F0010F02D12666012015
S214403530C7E766660120C4E700F01F000126864004
S21440354032464FF000512046124B984715F0010F77
S21440355002D126660120B4E766660120B1E705F091
S214403560605200F01F01012605EA06030093C5F3EA
S2144035708003B2F1605F14BF0022012206FA01F117
S2144035802046054CA04730469BE700BF0707200073
S214403590CD3340003B334000033440002DE9F0413A
S2144035A0044688460E4B9847054620460D4B98479E
S2144035B0054013D00C4C04F1600603E0B4420DD035
S2144035C010345DB120684045F8D161682942F5D095
S2144035D0E3689847636825EA0305EFE7BDE8F081AE
S2144035E06534400069344000900A4020F8B5184CD5
S2144035F02668062E2AD84FF0000C6446154F04E085
S2144036000134E4B2A446A64209D3A64625017D5914
S2144036108D42F5D107EB04156D689542F0D10D4DFE
S2144036204FEA0E1E05EB0E0445F80E106260A360CE
S2144036300699E1600136664505D011461A46064BA6
S21440364098470020F8BD02490E60F6E70120F8BD15
S214403650000B4020900A40202B34400008B50A2139
S2144036600148024B984708BD000E0E409D3540006D
S21440367008B50B210148024B984708BD00100E4084
S2144036809D35400008B50C210148024B984708BDBF
S21440369000120E409D35400008B510210148024BEF
S2144036A0984708BD00140E409D35400008B51121CE
S2144036B00148024B984708BD00160E409D35400015
S2144036C0F8B506460D461446174B984707464FF042
S2144036D0FF313046154B98473046154B98475FFAB2
S2144036E085FE0EF01F03012202FA03F36809114912
S2144036F001EB8002C2F88030C2F88031002D0ADB30
S2144037006401E4B20C4A545541F8203039463046FC
S2144037100A4B9847F8BD0EF00F0E6401E4B2084A13
S21440372002F80E40F0E700BF6934400061344000C4
S2144037306534400000E100E000E400E05D34400015
S21440374014ED00E0032811D0042812D002280CBF44
S2144037504FF480710021084A136B23F440730B43E7
S2144037601363936E13F0080FFBD070474FF440710D
S214403770F1E74FF40071EEE700060E40174A136B70
S21440378023F0700318431063936E13F0080F0AD1AA
S2144037904FF4805311498A6E12F0080F03D1013B53
S2144037A0F9D1012070470D4A136B23F0030343F011
S2144037B002031363936E13F0080F0AD14FF480533D
S2144037C006498A6E12F0080F05D1013BF9D1012057
S2144037D07047002070470020704700BF00060E402C
S2144037E0A0B90E48036A090289B20D4A1A400D4B29
S2144037F01343194301620246936E13F0010FFBD048
S214403800064A116A084B0B431362704703490B6A1A
S214403810064A1A40064B13430B62704700060E409A
S214403820FCFFC8FF0100370000003701FCFFC8FE60
S21440383002003701024B986E00F48030704700BF9C
S21440384000060E404FF00052014B9A62704700BF90
S21440385000060E40024B986E00F00200704700BF14
S21440386000060E403F281ED81F280CD8114B9A69D8
S21440387001238340934318D0012303FA00F00D4BF5
S21440388018610020704720380A4BD3F808210123DE
S214403890834093430BD0012303FA00F0054BC3F853
S2144038A0000100207047012070470020704700202C
S2144038B0704700BF00060E4008B5074B984203D03D
S2144038C0064B984204D008BD1520054B984708BDC6
S2144038D02A20034B9847F6E70080004000800540CA
S2144038E065384000436823F4702343604368090406
S2144038F001F4702119434160704710B443F6992390
S214403900046914F0010F03D1013BF9D1012009E00D
S2144039108368406810F0020F02D0C3F30340107073
S2144039200B8000205DF8044B704730B443F6992472
S214403930056915F0020F03D1013CF9D101200CE0D6
S214403940446814F0020F06D0120402F470221143A9
S2144039500BB141F08071C160002030BC704732B975
S21440396000EB8100036B23F001030363704700EB19
S2144039708100036B43F001030363704732B900EBE9
S2144039808100036B23F002030363704700EB810062
S214403990036B43F002030363704700EB81010B6B3C
S2144039A023F0F0030B630B6B1A430A637047431E06
S2144039B01944B1FBF0F0431EFE2B94BF00B24FF00B
S2144039C0FF3070477AB110B4144600EB81010B6BA0
S2144039D023F47F430B630A6B42EA04220A63002007
S2144039E05DF8044B70474FF0FF30704710B400EB63
S2144039F08101086B80B208630C6B44EA036343EAB8
S214403A0002430B635DF8044B7047436913F0020FA3
S214403A1002D0C1610020704701207047436913F00F
S214403A20010F03D083690B70002070470120704758
S214403A3010B40B01934214D9C9004B0803EBC202E1
S214403A40B2FBF1F2D3085C1E4FF6FE718C4201D9F0
S214403A50012017E0416841F4002141600CE001205C
S214403A6010E0590801EBC202B2FBF3F2D3085C1E29
S214403A704FF6FE718C42F2D8120402F4E0221A434A
S214403A80026200205DF8044B70470000084BC0F807
S214403A90E430002343604362836288230360242328
S214403AA003604FF4807303604FF400230360704755
S214403AB00041535570B505460C4616460F4B984781
S214403AC000220F4B1A60A4B13246216828460D4B9F
S214403AD09847024678B96368A1680B4321690B434F
S214403AE0E1680B4306490B6069680B436B60104600
S214403AF070BD0122FBE70122F9E700BF8D3A400086
S214403B00040B4020313A40004023036070471023A6
S214403B1003607047436913F0020F04D0C1F30801F5
S214403B20C1610020704701207047436913F0010FC0
S214403B3005D08369C3F308030B600020704701205B
S214403B407047FEE700B583B0254B264A9A4210D010
S214403B50254B234A9A420CD2013B9B1A23F003037F
S214403B60043313441F4951F8040B42F8040B9A429D
S214403B70F9D11E4B1E4A9A420AD2013B9B1A23F0A9
S214403B80030304331344002142F8041B9342FBD141
S214403B90184A194B23F07F039360EFF31083B3FA70
S214403BA083F35B09019372B6BFF35F8F0022134B1A
S214403BB01A700199124A136843F470031360BFF3F6
S214403BC04F8FBFF36F8F29B101220C4B1A70BFF392
S214403BD05F8F62B60B4B98470B4B9847FEE700BF8C
S214403BE00000402044C14000440A4020901140203C
S214403BF0440A402000ED00E0000040001400402051
S214403C0088ED00E019454000D94240003B4B1B6B15
S214403C1003F00303012B1DD083B1022B36D0374B64
S214403C201B6B03F07003702B5FD0344B1A6B344918
S214403C30C2F302120B68D3400B607047314B5B698E
S214403C4013F0800F14BF4FF400424FF4FA422C4B4F
S214403C501A60E4E7294B1B6A13F0807F03D02A4A98
S214403C60274B1A60DBE7294A254B1A60234B1B6A11
S214403C7003F07003102B05D0202BD0D1224A204BC6
S214403C801A60CCE7224A1E4B1A60C8E71B4B1B6AD9
S214403C9013F0807F16D01C4A194B1A60174B1B6BCB
S214403CA003F00303022BBAD1144A916A926A14486D
S214403CB0C1F30A41036801FB0333D2B2B3FBF2F30C
S214403CC00360ACE7114A0E4B1A600C4B1B6A03F0BC
S214403CD07003102B05D0202BE0D10B4A084B1A60FE
S214403CE0DCE70B4A064B1A60D8E7054A13680949D1
S214403CF0A1FB03135B081360704700BF00060E402D
S214403D001800402010180E40001BB70000093D0068
S214403D1000127A00ABAAAAAA124B984211D9124BAB
S214403D20984213D9114B984214D9114B984215D941
S214403D30104B984294BF4FF004220F4A0F4B1A6024
S214403D4070474FF080620D4B1A6070470C4A0B4B21
S214403D501A6070470B4A094B1A6070470A4A074B6D
S214403D601A607047FF2C3101FF596202FF869303A9
S214403D70FFB3C404FFE0F50500050004000C0E4048
S214403D800001000400020004000300040A4B1B6804
S214403D9053B1094B1B681A180849914208DB104674
S214403DA0054A106018467047054A034B1A60F0E70C
S214403DB04FF0FF30704700BF080B4020FCFF452007
S214403DC0903340204FF0FF3070474FF400534B6025
S214403DD000207047012070470020704710B582B021
S214403DE0094B19600122094B1A700B0E0193C1F35F
S214403DF007430093C1F30723CAB201460448054C63
S214403E00A04702B010BD00BF88104020851040205B
S214403E103CBC40006945400038B504460D46134B4F
S214403E209847042821D9421E6B7903F00F03092BCB
S214403E30CCBF37333033A354821E6B791B09092B12
S214403E40CCBF37333033A354021F2B7903F00F0314
S214403E50092BCCBF37333033A35405382B791B0995
S214403E60092BCCBF37333033235438BD8F05400041
S214403E70634B93F90030834200D0704770B582B0F0
S214403E801446052903D0062942D002B070BD5D4BCA
S214403E901B78002BF9D05C4D4FF4AF6200212846CA
S214403EA05A4B98475A4B00935A4B5B4A5B492846B5
S214403EB05B4DA847F4B194F90130002B1ADB524C05
S214403EC02046584B98474E4D002382B2214695F9DE
S214403ED00000554EB0474FF4AF66324600212046AC
S214403EE04A4B984700233246214695F900004F4CEE
S214403EF0A047CAE74E484F4B98470022414B1A709E
S214403F003F4C94F900004C4B9847FF232370BCE786
S214403F10002A6AD0B2F90430002B66DD47491068A3
S214403F20474B984704464748424B9847002C43D057
S214403F30063445492046424B9847064608B100237A
S214403F400370214641483B4DA8474149701C3C4BB5
S214403F50984704463F48A847002C31D013343E4982
S214403F602046374B9847054608B100230370214644
S214403F703648304B98473949681C314B9847044679
S214403F8010B337482B4B98471C34334920462C4BAC
S214403F90984708B10022027021462C48254B984786
S214403FA0174C94F90000244B9847FF2323704FF496
S214403FB080722C4B5A6368E72B481E4B984764E741
S214403FC029481C4B984760E70F4C4FF4AF652A468C
S214403FD0002120460D4B984700232A462146084894
S214403FE090F90000114CA0474FE72048114B9847E6
S214403FF0034C94F90000104B9847FF23237044E786
S21440400097004020861040200C0B402091454000F1
S2144040109CBC40006CBC400078BC400094BC400057
S2144040208947400001484000BD2D4000592E4000C1
S21440403014BD400069454000F92E400030BD4000A8
S2144040408D4B400038BD400040BD400044BD400060
S2144040504CBD400060BD400078BD40007CBD400087
S2144040608CBD400000120E4070BD4000A0BD400018
S21440407010B582B00C462C2805D0322815D0092819
S21440408022D002B010BD0B78012B08D0002BF8D1FF
S21440409019481A4B98470022194B1A70F1E71948ED
S2144040A0164B9847184B9847EBE78B784A78097831
S2144040B0E07800901548114CA0470122104B1A702A
S2144040C01348144B9847DCE713480C4B984794F832
S2144040D063301BB11148094B9847D2E72046104B36
S2144040E0984794F86220FF23009304F12103C1B25D
S2144040F020460C4CA047C4E7DCBD40006945400064
S21440410084104020BCBD40008915400000BE4000E1
S21440411080004020792F400028BE400050BE40001E
S214404120014840003D154000F0B583B005460C46BA
S214404130002301932A4B984213D02A4B984218D01A
S214404140294B98421DD0294B9D4222D0284B9D4258
S21440415027D0284B9D422ED0274B9D4235D003B0CA
S214404160F0BD1F46254E21463846B0470028FAD1B6
S214404170E9E71F46214E21463846B0470028FAD187
S214404180E4E71F461D4E21463846B0470028FAD180
S214404190DFE71F46194E21463846B0470028FAD179
S2144041A0DAE71E46164D01A93046A8470028FAD140
S2144041B0019B2370D3E71E46114D01A93046A84700
S2144041C00028FAD1019B2370C9E71E460C4D01A971
S2144041D03046A8470028FAD1019B2370BFE700BFAE
S2144041E000080E40000A0E40001A0E40001C0E400A
S2144041F0004002400080024000C002401D3A40009D
S2144042002B3B400070B50C462A4B984213D02A4BA5
S214404210984219D0294B98421FD0294B984225D016
S214404220284B98422BD0284B984231D0274B984267
S21440423037D0002070BD1E46254D21463046A84743
S2144042400028FAD1012070BD1E46214D2146304639
S214404250A8470028FAD1012070BD1E461C4D2146B5
S2144042603046A8470028FAD1012070BD1E46184D9A
S21440427021463046A8470028FAD1012070BD1E4688
S214404280144D21463046A8470028FAD1012070BD7B
S2144042901E46104D21463046A8470028FAD1012038
S2144042A070BD1E460B4D21463046A8470028FAD121
S2144042B0012070BD00080E40000A0E40001A0E4055
S2144042C0001C0E40004002400080024000C00240F9
S2144042D00B3A4000153B4000F0B595B05E4B984712
S2144042E05E4B98470E205E4EB0475E4D5E4B1D605F
S2144042F05E4A5F4B1A605F4A5F4B1A604FF4E13389
S2144043000193C02302934FF4006303930024049464
S21440431005940E20B047594A01A92846584B98475D
S2144043202846584B98472846574B9847574E336829
S21440433021469868564DA847336821465868A8478E
S2144043405448554B9847554B98470F9410941194A2
S21440435012941394524B0E930EA8524B984720B18A
S214404360014651484C4B9847FEE7504B98475049BA
S2144043705048514B98470DF12F010CA84F4B98478A
S2144043809DF82F30002B2BD04D4E30464D4B984746
S2144043904D4D314628464D4FB8474D4C3146204648
S2144043A0B84728464B4B9847C1B228464A4B984791
S2144043B0C02384F84130A82384F84230012284F890
S2144043C0432084F8442045492046454B984722469A
S2144043D044494548304B9847444D454C454E13E07C
S2144043E03748454B9847CFE7002201210220434BF0
S2144043F09847434B1870002817DA4248264B984790
S21440440002E04148244B98470020A8472378002BD9
S214404410FAD03378002BF7D13C4B1B78002BF3D0E7
S214404420374B93F90030002BDEDB0223ADF81C300F
S2144044304FF4A043ADF81E30354B1B68089310224E
S21440444007A92F4B93F90000324B98470028D8D144
S21440445001233370D8E700BF9D30400099314000BB
S21440446065384000008002408811402005424000E8
S21440447084114020294140008011402080D1F0081E
S214404480B53A4000093B40000F3B400098004020B2
S2144044902D464000F4BA40006945400025024000E1
S2144044A071404000E511400058BB4000F52B4000ED
S2144044B0DD3D4000713E4000392C40008D154000E7
S2144044C030004020C11540001C004020193E4000EE
S2144044D0380040208F054000F1154000E4BA400007
S2144044E02916400080BB400090BB4000E1124000CF
S2144044F08410402086104020591540004D2C400026
S21440450097004020E0BB400014BC4000851040208F
S214404510881040202D2D400070B50F4E0F4D761B55
S214404520B61018BF002405D0013455F8043B984710
S214404530A642F9D10A4E0B4D761B07F0EDFDB6109C
S21440454018BF002406D0013455F8043B9847A642CD
S214404550F9D170BD70BD00BF24C1400024C14000E9
S2144045602CC1400024C140000FB400B5074983B0B9
S21440457004AB086853F8042B8168019301F078FE79
S21440458003B05DF804EB04B0704700BF98004020CD
S21440459070B4860746D0541E002A41D0CAB203469D
S2144045A002E014F1FF343BD303F8012B9D07F8D10A
S2144045B0032C2ED9CDB245EA05250F2C45EA0545F4
S2144045C019D903F110022646103E0F2E42F8105C11
S2144045D042F80C5C42F8085C42F8045C02F11002B7
S2144045E0F2D8A4F1100222F00F0204F00F041032A9
S2144045F0032C13440DD91E462246043A032A46F895
S214404600045BFAD8221F22F003020432134404F05B
S21440461003042CB1C9B21C4403F8011B9C42FBD1D5
S21440462070BC704714460346C2E700BF00290CBF63
S214404630022200224FF4806300F000B82DE9F043D8
S214404640504C256883B004460F4690461E4615B12A
S214404650AB6B002B77D0B8F1020F04D0B8F1010F46
S2144046607DD8002E7BDB2146284603F00BFD216BD0
S21440467041B104F14003994202D0284603F06CFE53
S21440468000232363B4F90C300022A26162601A064C
S21440469052D423F44A6323F00303B8F1020FA381F4
S2144046A037D001AB6A462146284604F0F9F8A3897C
S2144046B01843A08116B317B3AB6B002B4BD0009BAF
S2144046C027609E42B4F90C3027611CBF43F4006358
S2144046D0A381B8F1010F04BF43F00103A3819BB24D
S2144046E013F00800666123D013F001002FD000209D
S2144046F07642A661A06003B0BDE8F083009E3046D7
S21440470004F040F9074668B3A38943F08003A381C9
S214404710D2E7002004F1430243F0020300250121C2
S214404720A381A56022602261616103B0BDE8F08389
S214404730A06003B0BDE8F0832169284603F00CFE74
S214404740B4F90C30A5E7284603F030FD83E7A660B1
S21440475003B0BDE8F083284603F028FDAFE74FF0EE
S214404760FF30E2E7DDF80090B14506D0484604F059
S21440477009F9074608B14E46C6E7B4F90C304FF083
S214404780FF30C7E7980040200EB4F0B59CB021AB90
S2144047900F4953F8042B019305466FF00044086810
S2144047A002954FF402774FF6FF7602A90695ADF8CC
S2144047B0147004940794ADF8166000F0F3FA029B68
S2144047C000221A701CB0BDE8F04003B0704700BF2E
S2144047D0980040200000000000000000000000009C
S2144047E00000000000000000000000000000000084
S2144047F00000000000000000000000000000000074
S21440480090F800F06DE9024520F007016FF0000CCB
S21440481010F0070491F820F040F049804FF0000473
S2144048206FF00700D1E9002391F840F000F108004E
S21440483082FA4CF2A4FA8CF283FA4CF3A2FA8CF386
S2144048404BBBD1E9022382FA4CF200F10800A4FAED
S2144048508CF283FA4CF3A2FA8CF3E3B9D1E9042341
S21440486082FA4CF200F10800A4FA8CF283FA4CF378
S214404870A2FA8CF37BB9D1E9062301F1200182FA32
S2144048804CF200F10800A4FA8CF283FA4CF3A2FA38
S2144048908CF3002BC6D0002A04BF04301A4612BA46
S2144048A0B2FA82F2FDE8024500EBD2007047D1E949
S2144048B0002304F00305C4F100004FEAC50514F0D8
S2144048C0040F91F840F00CFA05F562EA05021CBFA9
S2144048D063EA050362464FF00004A9E72DE9F0417C
S2144048E04FF0010E744600254FF0FF362B198B42D1
S2144048F000EB06070DD23F5D10F803C0BC452DD235
S2144049001D460124A3EB060E2B198B4200EB06072F
S214404910F1D34FF00108C2F800E0444600254FF0BE
S214404920FF372B19994200EB070E0ED91EF804E00C
S21440493010F803C0F44518D91D460124A3EB070818
S2144049402B19994200EB070EF0D80137701C8742AE
S21440495024BFC2F800803846BDE8F0810CD04FF046
S214404960010E2E4674467544C0E70BD04FF0010842
S2144049702F4644464544D4E7744512BF01341D468D
S2144049800124B3E7444512BF01341D460124C8E75D
S2144049902DE9F04FADF2144D164605468B461046AF
S2144049A0194603AA1C46FFF799FF03AB81460DF252
S2144049B00C4243F8044F9342FBD14CB1631E721E27
S2144049C004A812F8011F40F8213013F1FF33F8D243
S2144049D003994A463144304604F0F2FA00286FD133
S2144049E009F1FF330093F31882460193234680462D
S2144049F0544658469A4608EB0A073A1A0021284475
S214404A0004F08EFA002856D1002F54D0EB1904AA91
S214404A1013F8013C52F823304BB124B1039A934229
S214404A2001D2AAEB0203984400243846E3E74C45FB
S214404A3023460AF1FF3E38BF4B46734513D208EB78
S214404A40030216F803C0A85C84452A4406EB03011B
S214404A5006D02CE011F801CF12F8010F844526D17C
S214404A6001337345F6D34C45009980F08980009B0E
S214404A7008EB0302019BA85C1B7898422A447FD12E
S214404A80019804F1FF3B06E010F801CD12F801ED65
S214404A90F44503D119464B1E9B45F5D101348C4253
S214404AA070D8039C3846A044AAEB0404A3E7C9F197
S214404AB001029044B7E700200DF2144DBDE8F08F98
S214404AC0A4EB09034B4538BF4B46013309F1FF3889
S214404AD0039306EB080358464FF0000ACB46994628
S214404AE00AEB04073A1A0021284404F019FA002871
S214404AF0E1D1002FDFD0EB1904AA13F8013C52F89D
S214404B002330A3BB611E8B4515D20AEB0B0216F869
S214404B100B3015F802E09E452A4406EB0B005B4638
S214404B2006D027E010F801CF12F801EFF44521D166
S214404B3001338B42F6D3B8F1FF3F11D00AEB08029F
S214404B4099F80010AB5C99422A440FD14B4605E0D9
S214404B5013F8010D12F8011D884207D1B342F7D170
S214404B6005EB0A000DF2144DBDE8F08F039B9A4406
S214404B703846B5E7CBF1010292449A443846AFE74F
S214404B8049468BE705EB080096E700BF0278002A07
S214404B9000F001812DE9F04F91F8008085B0444641
S214404BA0B8F1000F16D0864601F1010C012703E04C
S214404BB013F8014B6CB19C46A24214BF002707F085
S214404BC001071EF8012F6346002AF1D19CF80030F9
S214404BD0FBB917B105B0BDE8F08F0E460546414615
S214404BE00130ACEB060405F013F8074688B1012CFB
S214404BF0F0D02819874294BFC11B01211F2C8B4639
S214404C000BD9234632463846FFF7C2FE05B0BDE80C
S214404C10F08F002005B0BDE8F08F03AA214630464D
S214404C20FFF75CFE0399804602463144304604F066
S214404C30C7F9002857D108F1FF330093F31881468F
S214404C40054601935846B2466619321A0021384442
S214404C5004F066F90028DCD1002EDAD0C845434679
S214404C6038BF4B469C4212D95A191AF80310B85C02
S214404C7081423A440AEB030E06D02CE01EF8010FA0
S214404C8012F8011F884226D101339C42F6D1C8450E
S214404C90009940F28380009BEA18019BB85C1B7821
S214404CA098423A447AD1019809F1FF3B06E010F861
S214404CB001CD12F801EDF44503D119464B1E5B4574
S214404CC0F5D109F10109894557D8039B30461D4463
S214404CD0A4EB0309B8E7C8F1010215441D444FF0A0
S214404CE000093046B0E7A4EB0803434538BF4346C7
S214404CF0013308F1FF39039306EB090358460025B4
S214404D00BB469A4667193A1A0021584404F008F9F7
S214404D1000287FF47EAF002F3FF47BAF444515D983
S214404D2008EB050216F808301BF8020098425A4471
S214404D3006EB0801434606D023E011F801EF12F8CF
S214404D40010F86451DD101339C42F6D1B9F1FF3F94
S214404D5012D005EB09029AF800301BF8021099426F
S214404D605A4414D1534605E013F8010D12F8011DBC
S214404D7088420CD1B342F7D15F46781905B0BDE8FA
S214404D80F08FC8F1010215441D443846BAE7039B2C
S214404D9038461D44B6E70B7813B97047414690E74E
S214404DA0002070472DE9F04FC3B00C460B91924659
S214404DB00F930C9003F066FD03681A931846FFF7AE
S214404DC01FFDA3891990190603D52369002B01F00E
S214404DD0018000230DF1C80913931493159327936C
S214404DE0269318931B930993CDF89490C846169330
S214404DF017939AF800305446E3B1252B02D119E0B8
S214404E00252B03D014F8013F002BF9D1A4EB0A055B
S214404E1085B1269B279AC8F800A001332A44072B61
S214404E20C8F80450279226937FDC08F10808099BAF
S214404E302B4409932378002B7FD000231A468DF805
S214404E40773019460D939B464FF0FF3063780A90B3
S214404E5004F1010A0AF1010AA3F12000582800F2E1
S214404E60C083DFE810F03802BE03BE034002BE0334
S214404E70BE03BE03BE03BE03BE0345020302BE031B
S214404E805D006B02BE0386029C039C039C039C034E
S214404E909C039C039C039C039C03BE03BE03BE036F
S214404EA0BE03BE03BE03BE03BE03BE03BE0337033C
S214404EB05703BE035703BE03BE03BE03BE0397039A
S214404EC0BE03BE03AC03BE03BE03BE03BE03BE03A7
S214404ED05902BE03BE031E03BE03BE03BE03BE038B
S214404EE0BE03BE03BE03BE03BE03BE03C602DB0252
S214404EF05703570357038B02DB02BE03BE039002E1
S214404F00BE039D02CC01B4020802BE03E101BE030B
S214404F107E00BE03BE030D020D980F9340420D90D7
S214404F204BF0040B9AF8003094E725AA0B990C989E
S214404F3004F0E2FE40B9C84679E7279B23B10C98B7
S214404F400B9925AA04F0D8FE0B9B9B8913F0400FC3
S214404F50099B18BF4FF0FF330993099843B0BDE84B
S214404F60F08F1BF0200F119340F0DD810F9A1BF05D
S214404F70100F134640F06C851BF0400F00F068851C
S214404F8014880432002501230F9200278DF877708D
S214404F900A994A1C00F065822BF08002079254EA78
S214404FA0050240F06482002940F03984002B40F02E
S214404FB0D4841BF001030E9300F0028642AE3023E9
S214404FC006F8413D0A9B0E9A9342B8BF1346089393
S214404FD00023129317B1089B01330893079B13F0E5
S214404FE00203109302D0089B02330893079B13F0EA
S214404FF0840540F00D830D9B089AA3EB020BBBF192
S214405000000F40F30583BBF1100F279C269A29DD3D
S21440501043462146A84610270C9C0B9D06E0ABF164
S214405020100BBBF1100F03F1080318DD0132B7482F
S21440503026921031072A279183E88100EFDD25AAC2
S2144050402946204604F058FE00287FF47DAFABF199
S214405050100BBBF1100F2799269A4B46E6DC4546C7
S2144050600C4698460132A94B26925C44072A279460
S21440507088E8080800F395849DF8777008F10808DA
S21440508077B1269B013301340DF177010122072BBE
S2144050902794269388E8060000F3D88308F108088A
S2144050A0109B6BB1269B013302341EA90222072BAC
S2144050B02794269388E8060000F3D38308F108086F
S2144050C0802D00F013830A9B0E9A9F1A002F36DD20
S2144050D0102F269B8E4D27DD42462146B0464FF088
S2144050E0100B2E460C9C0B9D04E0103F102F02F137
S2144050F0080215DD01331031072B2791269382E8ED
S2144051004008F2DD25AA2946204604F0F5FD002891
S2144051107FF41AAF103F102F2799269B4A46E9DCAA
S21440512035460C464646904601333C44072B27946A
S214405130269388E8A00000F37E8308F10808079BC2
S214405140DF0500F16782269B0E99C8F800600133A0
S2144051500C44072B2794C8F80410269300F34A8380
S21440516008F10808079B5B073AD50D9B089A9D1ADD
S214405170002D35DD102D269B20DD10260C9FDDF8FA
S2144051802CB004E0103D102D08F1080816DD013360
S2144051905E4A26931034072B279488E84400F1DDB6
S2144051A025AA5946384604F0A7FD00287FF4CCAE21
S2144051B0103D102D279C269BC846E8DC0133534AF9
S2144051C026932C44072B279488E8240008DD25AA3C
S2144051D00B990C9804F090FD00287FF4B5AE279C00
S2144051E0099B0D9A08998A42ACBF9B185B18099395
S2144051F0002C40F00A8300232693C846F9E5119315
S2144052001BF0200340F0E2811BF0100240F02C849B
S2144052101BF0400300F028840F9913460A460432D8
S2144052200C880F920025B0E60F9A1193166800245A
S2144052308DF87740151D002E00F0A5860A9A531C5F
S21440524000F007862146304603F06AFE002800F04C
S214405250DF86831B0E930A940F95CDF81CB023EA85
S214405260E373089312949DF87770B3E69AF800308B
S21440527001222B21EEE54BF0200B9AF80030E9E5B1
S2144052801193002A40F08D87224B18931BF0200F75
S21440529040F011810F9A1BF0100F134640F0DF8349
S2144052A01BF0400F00F0DB83043314880F93002577
S2144052B01BF0010F00F00C8154EA050300F0088152
S2144052C030239DF844208DF878308DF879204BF0C7
S2144052D0020B022359E69AF8003000297FF4BAAD53
S2144052E001222021B6E54BF0010B9AF80030B1E5DB
S2144052F00F9C23680D9318460028234603F10403A9
S214405300FFF60AAE0F939AF80030A3E5B8BE400009
S214405310C8BE400098BE40004BF0100B1BF0200F5C
S21440532011933FF423AE0F9D073525F0070303F195
S2144053300802D3E900450F92012326E69AF800308A
S2144053402A2B0AF1010400F01F87A3F13000092838
S214405350A24600F2AB8600231C461AF8013B04EB3B
S214405360840400EB4404A3F130000928F5D90A94DC
S21440537072E54BF0800B9AF800306BE54BF0400B33
S2144053809AF8003066E59AF800306C2B03BF9AF81E
S21440539001304BF0200B0AF1010A4BF0100B59E597
S2144053A0002A40F009871BF0200F40F0F7841BF0DE
S2144053B0100F40F0AA841BF0400F00F0A6840F9A0E
S2144053C0136804320F92BDF824201A8011E50F9915
S2144053D0B24B0C6818933022782304318DF879301C
S2144053E011934BF0020B0F9100258DF87820022385
S2144053F0CBE50F9911930A688DF8A02000230A4642
S2144054001F468DF87730043201230893CDF81CB040
S2144054100A9712970F920E9328AEDFE51193002A53
S21440542040F0E2861BF0200F5DD11BF0100F40F0DD
S21440543006831BF0400F00F002830F99B1F900403D
S2144054400431E51722462B460F91002A73F10003DC
S21440545058DB0A999DF877704A1C4FF001037FF499
S2144054609BAD54EA050200F0DC81CDF81CB0012B60
S21440547000F07882022B40F0038218984E462309AB
S21440548004F00F0143EA05732A091C461546435C9F
S21440549006F8013D54EA0503F1D1A9EB06030E9345
S2144054A090E51193002A40F09B867D4B18931BF0A5
S2144054B0200F3FF4EFAE0F9D073525F0070303F1AD
S2144054C008021BF0010F0F92D3E900457FF4F4AEBB
S2144054D002235AE51193002A40F07E864BF0100BCB
S2144054E01BF0200FA1D00F9D073525F00705D5E905
S2144054F00023002A05F108011D4673F100030F91B1
S2144055001446A6DA2D27644265EB45058DF877707C
S21440551001233DE51193002A40F05A860F9D07353A
S21440552025F0070303F108020F921A6814925B688D
S2144055301593159B149D23F00044284621464FF0B2
S214405540FF32584B05F074FA002840F0488328464E
S21440555021464FF0FF32534B05F04CFA002840F0FE
S2144055603E8314A80FC805F03BFA002840F02F856C
S2144055709DF877704C4E4D4B2BF08000079011985D
S2144055800322002108920A914728D8BF1E460E9251
S21440559012911FE54BF0080B9AF800305AE4A3F13D
S2144055A0300000231C461AF8013B04EB840400EB51
S2144055B04404A3F130000928F5D90D944CE44BF08F
S2144055C0100B11931BF020033FF41EAE0F9D0735C2
S2144055D025F0070303F10802D3E900450F920023A4
S2144055E0D3E41193002A40F0E085119A002A3FF454
S2144055F0A4AC002301211F4608918DF8A020CDF8C9
S2144056001CB08DF877300A9312930E9128AEE5E4DD
S214405610279C35E5119B652B40F3A68014A80FC840
S21440562005F0D4F9002800F04F81269B204AC8F8A0
S2144056300020013301340122072B27942693C8F813
S214405640042000F36A8308F108081F9B139A279CDE
S214405650934203DB079BDD077FF584AD269B1999B4
S2144056601A9AC8F8002001330C44072BC8F80410D7
S2144056702794269300F39E8308F10808139B5E1E2A
S214405680002E7FF76FAD102E269B0A4D40F3F58116
S21440569022461027DDF830B00B9C13E098BE400041
S2144056A084BE4000FFFFEF7F78BE400074BE4000DF
S2144056B0B4BE4000C8BE400008F10808103E102E98
S2144056C040F3DA8101331032072B2792269388E87D
S2144056D0A000F1DD25AA2146584604F00DFB00281F
S2144056E07FF432AC279A269BC846E7E70D9B089A7C
S2144056F09F1A002F7FF7E7AC102F269BB64D27DD6D
S21440570042462146B0464FF0100B2E460C9C0B9D51
S21440571004E0103F102F02F1080215DD013310316E
S214405720072B2791269382E84008F2DD25AA2946D2
S214405730204604F0E1FA00287FF406AC103F102F14
S2144057402799269B4A46E9DC35460C46464690460F
S21440575001333C44072B2794269388E8A00000F3A7
S214405760328208F10808AEE4139B269F012B40F3D3
S214405770FE81013701340123072F27942697C8F866
S2144057800060C8F8043000F3038208F10808199A4C
S2144057901A9BC8F8003001371444072F27942697E1
S2144057A0C8F8042000F3008208F1080814A80FC8BF
S2144057B005F00CF9139B002840F00181013B0137AE
S2144057C001361C44072F26972794C8F80060C8F86F
S2144057D0043000F3288108F108081B9AC8F8042012
S2144057E00137144421AB072F27942697C8F800307A
S2144057F07FF7B6AC25AA0B990C9804F07DFA0028E2
S2144058007FF4A2AB279CC846ACE425AA0B990C981B
S21440581004F072FA00283FF4EEACFFF795BBDDF8D3
S2144058201CB0012B00F03581022B25D1CDF81CB0E1
S2144058300024002521E625AA0B990C9804F05CFA72
S21440584000287FF481AB279CC84678E425AA0B99AC
S2144058500C9804F051FA00287FF476AB279CC84693
S2144058601EE425AA0B990C9804F046FA00287FF40B
S2144058706BAB279CC84623E4CDF81CB0002400251B
S214405880494600E03146E20842EA4572E80804F03C
S214405890070305461446303354EA050201F8013C36
S2144058A001F1FF36EED1079AD2077FF5F6AD302BE1
S2144058B03FF4F3AD0239302306F8013CA9EB01036F
