:020000040040BA
:10000000D0424020316940002F6940002F694000F4
:100010002F6940002F6940002F6940000000000058
:100020000000000000000000000000002F694000F8
:100030002F694000000000002F6940002F69400038
:100040002F6940002F6940002F6940002F69400050
:100050002F6940002F6940002F6940002F69400040
:100060002F69400000000000496440005D644000CA
:10007000716440002F6940002F6940002F694000E3
:1000800085644000996440002F6940002F6940005A
:100090002F6940002F6940002F6940002F69400000
:1000A0002F6940002F6940002F6940002F694000F0
:1000B0002F6940002F6940002F6940002F694000E0
:1000C0002F6940002F6940002F6940002F694000D0
:1000D000000000002F694000000000002F69400070
:1000E0002F6940002F6940002F6940002F694000B0
:1000F0002F6940002F6940002F6940002F694000A0
:100100002F6940002F6940002F6940002F6940008F
:100110002F69400000000000000000000000000007
:100120002F6940002F6940002F6940002F6940006F
:100130002F694000000000002F6940002F69400037
:1001400010B5054C237833B9044B13B10448AFF311
:1001500000800123237010BDF4094020000000003E
:1001600034EE40000C4B43B10C480D4910B5AFF3D1
:1001700000800C48036823B910BD0A48036833B9EE
:100180007047094B002BF7D0BDE810401847064BCD
:10019000002BF5D0184700BF0000000034EE4000EF
:1001A000F809402034EE40000000000010B5074B75
:1001B000196891F82230003318BF01234A7C09687E
:1001C00003480078034CA04710BD00BF100A402030
:1001D000190A40209111400008B104207047324BA9
:1001E0009A68324B03EB52135B02D96B02F01F0289
:1001F000012303FA02F20A4210D02B4B9B7B012B06
:1002000004D00422284B9A7302207047284B1B7895
:10021000002BF6D00022274B1A60F2E710B5224BD4
:100220009B7B042B05D0012B19D0032B2CD1032051
:1002300010BD01221C4B9A731E4B1B683BB91C4B13
:100240001A701C4B1C4959601A60022010BD002214
:10025000174B1A7019481A4B9847022010BD144BBF
:100260001B783BB1134B1B6813F4803F1AD000225C
:10027000104B1A600C4B02229A73124A1A60012228
:100280005A74002283F8222000220F4B1A70064C69
:100290000E4B1C600E4B9847A07B022814BF002019
:1002A000012010BD022010BD0C00402007072000D7
:1002B000180A402010E000E060343C026BAF0303FA
:1002C00001004020801A0600190A4020100A402030
:1002D000AD01400038B5049C520242EAC36242EAD2
:1002E000017242EAC0722178114341F23430054B69
:1002F0009847054608B9284638BD034B98472070F3
:10030000F9E700BF791240009D12400010B5094B7B
:100310001B689989090441F60930074B9847044640
:1003200008B9204610BD034B18681230034B98479C
:10033000F7E700BF100A402079124000A5124000E4
:1003400008B5044B1B7803B108BD0020024B984749
:10035000FAE700BF190A40205512400008B51020E6
:10036000054B98470422054B9A73FF22044B1A70E1
:10037000044B984708BD00BF516640000C00402068
:10038000190A4020551140002DE9F04395B0A74BC4
:1003900098470446012805D0A54B9847204615B03C
:1003A000BDE8F08314AE082306F8453DA14B1B6859
:1003B0000127DF7300251D749D819F4B9847009690
:1003C0002B460622294638469C4EB04729464FF414
:1003D00080409B4B984730B9964B1B6803249C7315
:1003E000934B9847DAE74FF4D57145F20850944B98
:1003F0009847002840F093804FF00009002144F214
:1004000005508F4B9847002840F09780894B1B6818
:10041000DB7B13F0010F40F0B580002145F20310A3
:10042000874B98470028D7D0824D2E68854B984738
:10043000000CB0812B68DB7B13F0010F34D0824BB2
:1004400098470028C8D02B685A7DC2F3C30002F039
:1004500007027E4951F822104FF47A7202FB01F232
:100460007B4951F8201002FB01F21A609A7C920934
:1004700040F00C82997E587E1A7E920242EA8002F7
:1004800042EAA112187FD97E490041EAE011C2F385
:100490000B02013201F0070102318A40D97D01F0DF
:1004A0000F018A40920A5A60624B1B6899890904BD
:1004B00043F20710624B984700288DD05D4B1B68B4
:1004C000DA7B12F0010F40F0EE815A4B1B68DB7BA8
:1004D00013F0040F00F09D8209250027574EA5F167
:1004E000090303AA134400933B462A46394638467B
:1004F000B04701350D2DF2D19DF80D309DF80C90CF
:1005000009EB03299DF80E3009EB03499DF80F30E4
:1005100009EB03694E464FF00008484F3AE2494B59
:100520009847B0F1FF3F00F04A83C0F30B00B0F5ED
:10053000D57F7FF451AFB94660E7424B984710F042
:10054000E04F3FF463AF41F2893544F205583C4E29
:100550003C4F00F4FC114046B04700283FF43CAF4C
:10056000B847002802DB013DF3D135E710F0006FFA
:1005700004D1304B1B680422DA734EE72D4B1B6805
:100580000522DA73B9F1000F324F14BFB9464FF4A8
:10059000FC1940F635054FF00008294E294F414619
:1005A00041F23710B04748B1494644F22950B047AC
:1005B00020B1B847002820DB013DF0D11D4B1B685E
:1005C0000222DA7300214FF480401D4B9847002827
:1005D0003FF402AF41F26905DFF87880184E194FF9
:1005E000414644F20150B04700283FF4F5AEB84709
:1005F000002831DB013DF3D1EEE610F0804F05D04D
:100600000C4B1A68D37B43F00803D373094B1B6868
:10061000DB7B13F0010F3FF400AF002145F6023001
:10062000074B984700287FF4F8AED5E6D901400083
:1006300041034000100A402057124000D5024000FC
:10064000791240009D1240000D034000A4D54000E7
:10065000C0D5400000801F4000F0C040B0F1804F86
:1006600027D0002145F60230A54B984700283FF4DB
:10067000B3AEA44B1B6801229A814FF4803141F242
:1006800003109F4B984700283FF4A6AE9E4B984717
:1006900000283FF4A1AE9B4B1A68937CC3F38303FD
:1006A000013B032B0CD8DFE813F0CD00D000D300C2
:1006B000D600944B1A68D37B43F00803D373D0E77A
:1006C00012231374537DC3F3C30003F007038F4950
:1006D00051F823104FF47A7303FB01F38C4951F85E
:1006E000201003FB01F31360917E507E137E9B026A
:1006F00043EA800343EAA113C3F30B0340F6FF71FF
:100700008B420FD0107FD17E490041EAE0110133C6
:1007100001F0070102318B40D17D01F00F018B40C8
:100720009B0A53609189090443F20710744B984760
:1007300000283FF451AE734B1B681B7C3F2B40F2EB
:1007400097800021009101234FF400727148724D8F
:10075000A84700283FF440AE0025704E03A8B047DC
:1007600000283FF439AE0135ADB2322DF6D1039EEB
:1007700006F00206634B1B689A7E597E1B7E9B0225
:1007800043EA810343EAA213C3F30B0340F6FF726B
:1007900093420ED1614F04A8B84700283FF41CAE25
:1007A0000135ADB2352DF6D9564B1A68049B5B085E
:1007B00053605A4F7F2D51D9594B1878594B984750
:1007C00003281DD9564B1878564B984705460428E0
:1007D0004CD0554B5549082818BF194643F206100E
:1007E000474B984700283FF4F7AD514B984710F01E
:1007F000800F7FF4F1AD434B1B685D744D4B984700
:100800004D4B9847BEB1B0B14C4943F206103C4B3A
:10081000984700283FF4E0AD454B984710F0800F13
:100820007FF4DAAD374B1B68012283F82220444A5B
:100830001A60404B98470A254FF4007841F2101790
:100840002F4E1DE0142313743CE72223137439E761
:100850003023137436E74023137433E704A8B847F2
:1008600000283FF4B9AD0135ADB2A3E73549B5E78E
:10087000304B9847DFE7013D15F0FF053FF4ACAD85
:1008800041463846B0470028F5D00EE1D97E987E23
:100890005A7E120442EA00220A43C2F315020132D0
:1008A00052025A6000E69989090441F23710144B4C
:1008B000984700283FF490AD0123009308220021BF
:1008C0002148154DA84700283FF486AD012104A812
:1008D0001E4B984700283FF47FAD1D4B98470028DA
:1008E0003FF47AAD9DF8103003F00F03012B36D0A2
:1008F00083B3022B38D0034B1B6810221A74E4E533
:1009000079124000100A40200D034000A4D5400099
:1009100064D5400008110800D51240009D13400026
:10092000190A4020811140000000B7010002B70100
:100930009D124000AD0140008B1140000001B90341
:10094000007519030001B7013311080011144000AC
:10095000DD1440009B4B1B6810221A74B5E5994BBF
:100960001B681A221A74B0E59DF81230DB09954B0A
:100970001B6814BF302220221A74A6E59DF811309E
:10098000002B3FF429AD02331E4409F580739E42CB
:100990003FF622AD002504AB2B4400934346721969
:1009A00041464046B8470135032DF4D19DF810303B
:1009B000FF2B3FF411AD222BE0D19DF81230002B1C
:1009C000DCD104AD06F106094FF000087E4F00951A
:1009D0004346324641464046B847013601354E450A
:1009E000F5D19DF81530322B28BF3223754A126895
:1009F000C3F3C30003F00703744951F823104FF405
:100A00007A7303FB01F3724951F8201003FB01F3E1
:100A10001360704B1878704B9847032822D9694BA4
:100A20001B68DB7B13F0040F46D1664B1B68DA7B37
:100A300012F0010F14D09989090441F23710674B65
:100A4000984700283FF4C8AC022141F20610634BDE
:100A5000984700283FF4C0AC5A4B1B6804225A74D4
:100A60005F4B98475F4B984780B1564B1B68DB7BC9
:100A700013F0040F41D1534B1B68DA7B12F0010FC6
:100A800002D01B7C102B5ED8554B98474D4B1B68F2
:100A9000DB7B13F0010F08D04FF4007141F210100E
:100AA0004E4B984700283FF497AC464B1B680022FA
:100AB0009A734D4B984771E404AB009300230822CE
:100AC00019461846404DA84700283FF485AC9DF9CB
:100AD0001030002BA9DA14AB022203F8402D00934A
:100AE0000123072200211846A84700283FF474ACD0
:100AF000344B1B6804225A7497E704AB009300231D
:100B0000132219461846304DA84700283FF464AC1C
:100B10009DF8103013F0010FADD014AB022203F892
:100B2000402D00930123132200211846A8470028D6
:100B30003FF452AC234B1B68012283F822201A6831
:100B400052001A6097E740252A46002104A8274B47
:100B50009847012300932A4625492648264DA84751
:100B600000283FF439AC012104A8244B9847002801
:100B70003FF432AC224B984700283FF42DAC214B78
:100B8000984710F0800F7FF427AC9DF8203003F0D9
:100B90000F030F2B3FF478AF9DF82D309DF82C20DC
:100BA00053EA02237FF418AC174B9847054B1B6898
:100BB000012283F822201A6852001A6064E74FF07D
:100BC00000091BE4100A4020D5024000A4D54000D3
:100BD000C0D54000190A4020811140007912400020
:100BE000AD0140008B11400041034000ED79400011
:100BF00001FFFF8006110800D512400011144000CB
:100C0000DD1440009D1240005712400008B5054B0E
:100C1000984708B1002008BD034B9847034B1B6859
:100C2000D87B08BDD901400041034000100A402094
:100C300008B5054B984708B1002008BD034B9847FD
:100C4000034B1B68586808BDD901400041034000B0
:100C5000100A4020002070472DE9F04782B08A46F4
:100C60009146264B9847804618B1404602B0BDE8F1
:100C7000F087234C234E244D244F3368998909046F
:100C800041F20D10A84728B1B84710F4807F17D162
:100C9000013CF2D11E4B98474FF00508E5E71B4B8E
:100CA00098471C4B034033B91B4BA3F800901B4BD8
:100CB000A3F80090D9E7164B98474FF00508D4E702
:100CC000174B1848B9F1010F98BF18460D4B1B6818
:100CD000DB7B13F0080F01D14FEA4A2A012300936E
:100CE0004B464FF4007251460F4CA0470028D6D116
:100CF000074B98474FF00508B7E700BFD901400000
:100D0000410D0300100A4020791240009D1240005E
:100D100041034000000058E4140A4020160A402015
:100D20001111080012111000D512400010B50C4628
:100D3000064B984720B90022054B1A80052010BDAC
:100D4000034A13881C1B1480002010BD111440009E
:100D5000140A402010B50446134B984708B90520E3
:100D600010BD84B10022114B1A80114B1B88012B3E
:100D70000FD0002143F20C100E4B984768B10E4B78
:100D80009847002010BD094B1B88002BEDD0002098
:100D900010BD094B9847002010BD002143F20C10F4
:100DA000044B9847EBE700BFDD144000140A4020D5
:100DB000160A4020791240004103400070B582B00D
:100DC0000E461546164B98470446B8B9154B1648BB
:100DD000012D98BF1846154B1B68DB7B13F0080FDD
:100DE00008BF7602012300932B464FF40072314670
:100DF0000F4EB04728B90F4B98470524204602B044
:100E000070BD0D4B98470D4B034023B90C4B1D8013
:100E10000C4B1D80F2E7074B98470524EEE700BF17
:100E2000D90140001891080019911000100A4020C3
:100E3000D5124000410340009D124000000058E4DC
:100E4000140A4020160A402010B50C46064B98475D
:100E500020B90022054B1A80052010BD034A1388D3
:100E60001C1B1480002010BD41154000140A4020B6
:100E700010B50446124B984708B9052010BD84B13F
:100E80000022104B1A80104B1B88012B0FD0002121
:100E900043F20C100D4B984768B90D4B984705204D
:100EA00010BD084B1B88002BEDD0002010BD084B57
:100EB0009847002010BD064B9847002010BD00BF8A
:100EC0000D164000140A4020160A402079124000F6
:100ED0004103400010B504460F4B9847012818D035
:100EE00018B1022810D0012010BD0C4B1B5D0BB1B6
:100EF000022010BD20460A4B984700F0030000284E
:100F000014BF0020022010BD0022044B1A550220FD
:100F100010BD032010BD00BF890340001C0A402003
:100F20000D0C400008B50020014B984708BD00BFDC
:100F3000D50E400038B504460D46044B9847400096
:100F4000013828602046024B984738BD310C4000DC
:100F5000D50E400008B501460020014B984708BD5A
:100F6000350F400008B50020014B984708BD00BF71
:100F7000550C400010B5144601220A4B984720B189
:100F800002280CBF0220012010BD01212046064B83
:100F9000984708B1012010BD044B9847003018BF96
:100FA000012010BD590C40002D0D4000550D400092
:100FB00008B50A4601460020014B984708BD00BF0E
:100FC000750F400010B5144601220A4B984720B116
:100FD00002280CBF0220012010BD01212046064B33
:100FE000984708B1012010BD044B9847003018BF46
:100FF000012010BDBD0D4000490E4000710E4000A3
:1010000008B50A4601460020014B984708BD00BFBD
:10101000C50F400008B10120704708B5014B984743
:1010200008BD00BF250F400008B10120704708B57A
:101030000846014B984708BD550F4000B0FA80F0B4
:101040004009704708B10120704708B5014B984727
:1010500008BD00BF650F400008B10120704708B50A
:1010600008461146014B984708BD00BFB10F40002C
:1010700008B10120704708B508461146014B984752
:1010800008BD00BF0110400070B44FF080435D68A0
:101090009C68D868D9695A6D80261E605D609C6026
:1010A000D860D9615A6500221A6505221A6070BCA1
:1010B0007047000008B501F03F03184311F4807F2A
:1010C00004D011F4006F0ED040F4845011F4804F1E
:1010D00018BF40F400604FF080431A615861184611
:1010E00001F480520DE011F4005F14BF40F486500B
:1010F00040F48250EAE713F41B0F0CD113F0010FF8
:101100000DD1036C002AF6D013F41F0FF6D0104B4C
:101110009847002008BD0E4B9847002008BD11F4E9
:10112000005F03D1012008BD012008BD4FF08043BE
:101130001B6C4FF0FF324FF0804103F03003202B47
:10114000F2D00B6C013AF8D1014B9847002008BD52
:101150008910400010B51220084CA0473A20A04743
:101160004FF0804372229A60DA6111225A654FF47F
:10117000E0625A6005221A6010BD00BF516640004F
:1011800000280CBF04200020704701207047000099
:101190007BB34FF08040436D43F4807343652B4B2A
:1011A000B3EB410F37D310B42948B0FBF1F301FB87
:1011B000130129BB023B4FF08041486820F0FF003B
:1011C00048604C68C3F347002043486013F0010FA8
:1011D00018D04B6843F480334B60042A19D0082A96
:1011E0000CBFC02200224FF08043DA605DF8044B50
:1011F00070474FF08040436D23F480734365CEE722
:10120000013BD8E74FF080414B6823F480334B60BB
:10121000E3E78022E7E74FF08043596821F0FF01C0
:101220005960596859604FF080414B6823F480330E
:101230004B60042A07D0082A0CBFC02200224FF0BE
:101240008043DA6070478022F9E700BF7FD1F00861
:1012500080D1F00870474FF080435A6822F4605202
:101260005A6000221A614FF410625A611A46136CD8
:1012700013F0010FFBD0704710B54FF080435A6850
:1012800022F460525A6000241C659C610A460146A3
:101290002046014B984710BDB51040004FF08043E9
:1012A000186A704710B4031D14304FF08044226A4E
:1012B000110E03F8041C110C03F8031C110A03F8A7
:1012C000021C03F8012C04338342F0D15DF8044B77
:1012D0007047000070B59DF8104084B34FF48075DE
:1012E0004FF0804425654FF080456C6844F4C0544D
:1012F0006C6012F0030F27D06C6844F400546C60EB
:1013000000F40044002C14BF4FF480344FF4A024A8
:1013100010F4803F1FD143EA02454FF08046B5618B
:1013200010F4003F2BD110F4802F2BD110F4002F9C
:1013300018D110F4801F18BF44F4002412E00025D7
:101340004FF080442565CEE74FF080456C6824F46B
:1013500000546C60D4E744F40014C2F308054FF065
:101360008046B5610026094D2E60094D2A80094A44
:1013700013800A4601462046074B984770BD44F447
:101380002014EFE744F48014ECE700BF240A402067
:101390001E0A4020200A4020B510400008B54FF03A
:1013A0008041164A0B6C13421DD113F0020FF9D085
:1013B0004FF080431B6B0360114A136804331360C2
:1013C000104A1188104A128802FB01F2934212D38C
:1013D0004FF08041094A0B6C134208D113F0006FA3
:1013E000F9D0012008BD094B9847002008BD074BE4
:1013F0009847002008BD012008BD00BF000060C064
:10140000240A40201E0A4020200A40208910400063
:101410002DE9F04188B004460D462022002168469F
:10142000264B9847264801230362264B1B8805FB61
:1014300003F5254B0393AB080093244B01930294CF
:101440006A460021224B9847224BD3F88030C3F3E1
:101450004E3703F007000430C3F3C90EBEFA8EFC0A
:101460000CF01F0CBFF34F8F4FF0FF3404FA00F85D
:1014700007FA00F004FA0CF40EFA0CFC154E724652
:10148000634643EA0001C6F87412013A2344B2F1FC
:10149000FF3FF6D1013F4044B7F1FF3FEFD1BFF32B
:1014A0004F8FBFF36F8F0120054BD8610A4A136835
:1014B0002B44136008B0BDE8F08100BFED79400017
:1014C000008007401E0A4020013004000002004056
:1014D0003D17400000ED00E0240A402070B5124B9B
:1014E0001B88124A128802FB03F2114B1C684FF052
:1014F00080401049104E09E0104B984701220E4BD6
:101500001A62002070BD13F0006F0AD1036C0B4209
:10151000F2D1A242F7D9F56D15F0010FF3D00120F9
:1015200070BD012070BD00BF1E0A4020200A40206F
:10153000240A4020000060C000800740891040005D
:101540002DE9F04188B004460D462022002168466E
:10155000264B9847264801230362264B1B8805FB30
:1015600003F5254B0393AB0800930194234B02939F
:101570006A460021224B9847224BD3F88030C3F3B0
:101580004E3703F007000430C3F3C90EBEFA8EFCD9
:101590000CF01F0CBFF34F8F4FF0FF3404FA00F82C
:1015A00007FA00F004FA0CF40EFA0CFC154E724621
:1015B000634643EA0001C6F87412013A2344B2F1CB
:1015C000FF3FF6D1013F4044B7F1FF3FEFD1BFF3FA
:1015D0004F8FBFF36F8F0120054BD8610A4A136804
:1015E0002B44136008B0BDE8F08100BFED794000E6
:1015F000008007401E0A40201150010000020040F8
:101600003D17400000ED00E0240A402070B5124B69
:101610001B88124A128802FB03F2114B1C684FF020
:1016200080401049104E09E0104B984701220E4BA4
:101630001A62002070BD13F0006F0AD1036C0B42D8
:10164000F2D1A242F7D9F56D15F0010FF3D00120C8
:1016500070BD012070BD00BF1E0A4020200A40203E
:10166000240A4020000060C000800740891040002C
:1016700030B485688468A54203D085688468AC422C
:10168000FBD161B1C4F3015000EB8005C4F303400A
:1016900000EB450014F4800F18BF0C30086042B115
:1016A000C4F3023101EB8101C4F3032000EB4101DB
:1016B000116043B1C4F3021202EB820204F00F0482
:1016C00004EB42041C6030BC7047F0B4049EC56853
:1016D000C468A54203D0C568C468AC42FBD199B1C7
:1016E000C4F3033000EB8000C4F3032707EB40078B
:1016F000C4F3021000EB800504F00F0000EB45007E
:10170000642505FB0070086042B1C4F300508100FD
:101710000844C4F3034101EB4001116043B1C4F339
:10172000017202EB8202C4F3036101EB42021A6010
:1017300016B1C4F342543460F0BC704700EB811121
:10174000CB6D53680B6693684B66136823F07F4339
:101750000B671369C3F30B034B675369CB6793693B
:1017600023F07F43C1F88030D36923F07F43C1F871
:101770008430D3688B677047012801D901207047F6
:1017800010B504460A4B9847032806D12046084B5B
:101790009847032801D1012010BD38B92046054BD8
:1017A0009847002814BF0420002010BD012010BD60
:1017B000151040004510400008B5054B984720B172
:1017C00002280CBF0320012008BD002008BD00BF77
:1017D000151040002DE9F04F83B080460D461446A9
:1017E0001F46154B984718B9012003B0BDE8F08F8C
:1017F000064601A94046114B9847B14606FB0742F1
:10180000019B03FB06639A4201D90420EDE7BA4627
:1018100077B176020027DFF828B02A4621464046F5
:10182000D84738B901374C4435445745F5D1DCE742
:101830000020DAE70120D8E73D10400029104000E1
:10184000591040002DE9F04F83B080460D461446F4
:101850001F46154B984718B9012003B0BDE8F08F1B
:10186000064601A94046114B9847B14606FB074280
:10187000019B03FB06639A4201D90420EDE7BA46B7
:1018800077B176020027DFF828B02A462146404685
:10189000D84738B901374C4435445745F5D1DCE7D2
:1018A0000020DAE70120D8E73D1040002910400071
:1018B0007110400010B582B01446032925D8DFE826
:1018C00001F01D070F0201231360002002B010BDBC
:1018D00001A9114B9847019B013323600020F5E7D4
:1018E0000E4B9847082812D84FF48B7323FA00F058
:1018F00010F0010F0DD000202070E7E7084B98474B
:1019000000280CBF00200320E0E70420DEE70120D0
:10191000DCE70120DAE700BF291040003D1040005D
:101920001510400030B58BB0114C07AB08AA09A9BF
:101930002046104DA84703AB009304AB05AA06A9A7
:1019400020460D4CA047049B1B04059843EA4053D6
:10195000099843EAC023089843EA4013079843EAEA
:1019600050030698A0F2BC7043EA40600BB030BD53
:1019700060180E4071164000CB1640003AB1013895
:101980008A1811F8013B00F8013F9142F9D17047E4
:1019900022B1821800F8011B8242FBD17047023944
:1019A0008369023B994204D28378806A01FB030079
:1019B000704700207047024600F10B010020C30170
:1019C00043EA500312F8010B50FA83F3D8B28A426B
:1019D000F5D1704798B108B502780AB9092008BD59
:1019E000C2888A4201D0092008BD4078054B98473B
:1019F00000F00100002814BF0320002008BD0920CA
:101A0000704700BFB917400038B5044601230A46A5
:101A100000F1300140781D4DA84708B1032038BDC2
:101A200094F82F2294F82E3243EA02231BB2184A6C
:101A3000934201D0022038BD94F8692094F86830B0
:101A40001B0443EA026394F86620134394F867206A
:101A500043EA022323F07F430E4A934213D094F8C3
:101A6000853094F88400000440EA036094F88230E2
:101A7000184394F8833040EA032020F07F40801A16
:101A800018BF012038BD002038BD00BFD517400069
:101A900055AAFFFF46415400F8B503681C78303C56
:101AA000092C0AD85D783A2D01D0002406E00233D3
:101AB0000360072C02D90B20F8BD0024AE4B53F86D
:101AC00024500D60002D00F03E8116462B787BB12E
:101AD0006878AA4B984710F0010F09D1002E00F04A
:101AE000348100F0040000280CBF00200A20F8BD5B
:101AF00000232B70E0B26870A14B984710F0010FE3
:101B000001D00320F8BD26B110F0040F01D00A2047
:101B1000F8BD002128469B4B9847012806D0002499
:101B2000032800F01481C8B10D20F8BD95F8F231FA
:101B30000BB90D20F8BD95F8F93195F8F84124045A
:101B400044EA036495F8F6311C4395F8F73144EA0A
:101B50000324214628468B4B9847E1E795F83C2023
:101B600095F83B3043EA02231BB2B3F5007F01D066
:101B70000D20F8BD95F8473095F8462052EA03222B
:101B80000DD195F8573095F85620120442EA0362B9
:101B900095F854301A4395F8553042EA0322EA6129
:101BA00095F840E085F803E00EF1FF33DBB2012B3E
:101BB00001D90D20F8BD95F83D60AE70002E00F003
:101BC000C880731E334201D00D20F8BD95F8423015
:101BD00095F8411041EA0321298111F00F0F40F0DF
:101BE000BA8095F8440095F8433053EA00230DD1AC
:101BF00095F8530095F852301B0443EA006395F8BA
:101C00005000034395F8510043EA002395F83F0044
:101C100095F83E7057EA002700F09F8002FB0EFE09
:101C200007EB111070448342C0F099801B1AB3FB7C
:101C3000F6F3002B00F0958040F6F576B3428CBFAA
:101C4000022601264FF6F57C634500F2A58002339B
:101C5000AB612044A8623C442C62002900F08980DA
:101C600074446C62022E0BD15B0003F2FF13B2EBE3
:101C7000532F7CD34FF0FF332B610023EB6051E0F7
:101C800003EB430103F0010303EB5103EDE795F888
:101C90002F2295F82E3243EA02231BB23A4A93428E
:101CA0004BD195F8332095F832301B0443EA026398
:101CB00095F83020134395F8312043EA0223334A44
:101CC00093423CD195F8172295F816321B0443EA4B
:101CD000026395F81422134395F8152243EA022370
:101CE0002B4A93422DD195F81F2295F81E321B04E2
:101CF00043EA026395F81C22134395F81D2243EA38
:101D00000223EB6095F81B2295F81A321B0443EA74
:101D1000026395F81822134395F8192243EA022327
:101D20002B6103262E701B4A138801339BB213804C
:101D3000EB800020E8622871F8BD0326F2E7032655
:101D4000F0E70326EEE70C20F8BD0020F8BD0120E7
:101D5000F8BD0D20F8BD0D20F8BD0D20F8BD0D20FB
:101D6000F8BD0D20F8BD0D20F8BD0D20F8BD0D20EB
:101D7000F8BD0D20F8BD00BF280A4020B91740006B
:101D800079174000091A400055AAFFFF52526141DD
:101D900072724161480A40200233AB612044A8625C
:101DA00027442F620029E0D195F85F0095F85E1076
:101DB000090441EA006195F85C00014395F85D0073
:101DC00041EA002169629B0003F2FF13B2EB532F3B
:101DD000C9D34FF0FF332B610023EB606B7195F893
:101DE000613095F8602042EA032222446A610123AF
:101DF00005F130016878034CA04700283FF447AF55
:101E000003268FE7D51740002DE9F047C76A8F42B8
:101E100035D00E46044603791BB92EBB0020BDE821
:101E2000F08700F1300801233A4641464078184DCA
:101E3000A84738BB00232371236AE26913449F42F9
:101E4000EBD2E578012DE8D94FF0010ADFF8409098
:101E5000E3691F4453463A4641466078C847013D0E
:101E6000EDB2012DF4D1D8E70123324604F130015F
:101E70006078084DA84740B9E662BDE8F0870020C9
:101E8000BDE8F0870120BDE8F0870120BDE8F087BC
:101E900045184000D517400001296AD9F8B5836973
:101EA000994268D20C4606460378022B2FD0032BAA
:101EB00041D0012B02D04FF0FF30F8BD01EB5107AC
:101EC000016A01EB57212D4B984710B14FF0FF30BD
:101ED000F8BDC7F30803334493F830500137316A33
:101EE00001EB57213046254B984710B14FF0FF309A
:101EF000F8BDC7F30807F01990F8300045EA002054
:101F000014F0010F14BF0009C0F30B00F8BD016A03
:101F100001EB1421194B984710B14FF0FF30F8BD79
:101F2000600000F4FF70304490F8313090F83000D9
:101F300040EA0320F8BD016A01EBD4110F4B98472A
:101F400010B14FF0FF30F8BDA00000F4FE7000F1BA
:101F500030023244D17893781B0443EA0163304461
:101F600090F830001843537840EA032020F0704086
:101F7000F8BD012070470120F8BD00BF091E4000D8
:101F8000F8B505460C46C180816801293DD003683B
:101F90009A69914201D30220F8BD61B91A78032AE7
:101FA00006D00022EA601A89A24221D80220F8BD98
:101FB000596A0029F5D09E783601B44210D3174FE4
:101FC0002868B8470146B0F1FF3F20D0012820D94A
:101FD0002B689B6998421ED2A41BA4B2A642EFD9DB
:101FE000E96028680E4B984700EB1410286103E065
:101FF0005B6A03EB14132B612B68303304F00F047E
:1020000003EB44146C610020F8BD0220F8BD0120F0
:10201000F8BD0220F8BD0220F8BD00BF991E4000A7
:102020009F1940002DE9F041012940F28F8083691A
:10203000994201D302278AE015460C4606460378EA
:10204000022B4ED0032B5FD0012B03D0022701239C
:1020500033717CE001EB5108016A01EB58213D4BE3
:10206000984707460028F2D1C8F3080314F0010F7F
:102070001CD0334493F8302002F00F0242EA0512DC
:1020800083F8302008F1010801233371316A01EB34
:10209000582130462F4B9847002853D1C8F30808E1
:1020A000C5F30712B04488F83020D0E7334483F8F2
:1020B000305008F1010801233371316A01EB5821D6
:1020C0003046244B984700283ED1C8F3080806EB59
:1020D000080393F8303023F00F03C5F303221A43AB
:1020E000E0E7016A01EB14211A4B984707460028E4
:1020F000ADD1630003F4FF73334483F83050C5F36C
:10210000072283F83120A2E7016A01EBD411114BB9
:102110009847074600289AD1A10001F4FE7101F109
:1021200030033344DA781206314402F070422A4315
:1021300081F83020C2F307215970110C9970120EEA
:10214000DA7084E7074682E7074680E702273846C9
:10215000BDE8F081091E40002DE9F04105468846A2
:1021600041B9C66886B183699E4228BF01263446BC
:10217000274F17E0264B9847034601283ED9AA6906
:10218000904240D34646F2E70126F0E72146284632
:10219000B847034670B1B0F1FF3F34D0012832D0C8
:1021A000B4422FD00134AB699C42EFD3012E27D922
:1021B0000224EBE76FF0704221462846154B984702
:1021C000034610B9B8F1000F0BD18BB9EC602B6945
:1021D000B3F1FF3F1AD0013B2B6101236B71234602
:1021E00011E02246414628460A4B98470346ECE751
:1021F000012B0CBF4FF0FF33012304E0012302E069
:10220000002300E000231846BDE8F0812346FAE7EA
:10221000991E40002520400001292ED92DE9F843C0
:1022200004460E468369994203D302221046BDE854
:10223000F883164F4FF00009DFF8548003E02E4674
:10224000A369AB42F2D931462046B8470546B8B13A
:10225000012817D0B0F1FF3F16D04A46314620463C
:10226000C04702460028E1D12369B3F1FF3FE6D021
:102270000133236101236371E1E7022210467047B5
:102280000022D3E70222D1E70122CFE7991E4000C6
:10229000252040002DE9F84FC4880134A4B214B9B8
:1022A0000420BDE8F88F036913B90420BDE8F88F56
:1022B0000E46054614F00F0710D101330361C168C3
:1022C00031B903681B89A34208D80420BDE8F88F00
:1022D00000688378013B13EA141308D0EC802B6864
:1022E000303303EB47136B610020BDE8F88F324BAE
:1022F0009847804601284DD9B0F1FF3F4DD028685E
:10230000836998453ED316B90420BDE8F88FE96883
:102310002A4B9847804610B90720BDE8F88F01285E
:102320003ED0B0F1FF3F3ED000212868244B9847B3
:1023300000283BD128684FF4007200213030214B37
:1023400098472E68414630461F4B9847F06200265A
:102350004FF0010BB246DFF868902B689978F2B223
:1023600091420BD983F804B051462868C84701361A
:10237000F8B92A68D36A0133D362EEE71646DA6AFF
:10238000961BDE62C5F80C80414628680E4B9847C4
:102390002861A3E70220BDE8F88F0120BDE8F88F8F
:1023A0000220BDE8F88F0120BDE8F88F0120BDE8CC
:1023B000F88F0120BDE8F88F991E40005921400098
:1023C000091E4000911940009F1940002DE9F04F6F
:1023D00085B005460021614B9847804608BB4FF009
:1023E000FF0BD9465E4FDA4694E00F2A1DD0B9F1B3
:1023F000000F04D120465B4B9847824511D04FF621
:10240000FF732B84AB69DA7A12F0010F79D104F1F2
:102410000B0014F8011B13F8012B91426BD184427D
:10242000F7D1404605B0BDE8F08FD5F81C80B8F173
:10243000000F68D016F0400F0CD094F80DA006F0F5
:10244000BF06EB882B8494F80DB0D34507D04FF02E
:10245000FF0958E0B145F6D04FF0FF0953E094F87A
:1024600000A02AF0400A0AF1FF3A0AEB4A030AEBFD
:102470008303DFF8FC9009F10D0A01200396CDF8E3
:1024800004B01E4602950FE01846374B9847834626
:10249000FE2E5AD8751C38F81600334B98478345E2
:1024A00057D12E46D14513D019F8012BA3185978CE
:1024B000A35C43EA01230028E6D14FF6FF72934262
:1024C000F0D0DDF804B0029DDA464FF0FF091AE0C3
:1024D000DDF804B03246039E029D237813F0400FCE
:1024E00004D018B138F81230002BEDD1013E5FFA5C
:1024F00086F9DA4607E04FF0FF0904E04FF0FF09E4
:1025000001E04FF0FF0900212846184B984780460C
:10251000002886D129692868B8478046002880D1DC
:102520006C69267876B1E37A03F03F02E52EE5D0B8
:1025300013F0080F3FF459AF0F2A3FF456AF4FF096
:10254000FF09E0E74FF004086BE7DDF804B0029DF7
:10255000BAE7DDF804B0029DB6E700BF811F400076
:10256000091E4000B7194000553140009522400037
:1025700000D640002DE9F04F89B004468569D0F8B7
:102580001CB00C22294605A8A84B98479DF81F307F
:1025900013F0010F79D00023EB72E3610B2205A940
:1025A0002846A24B984701273B464FF02008DFF80A
:1025B0009C92DFF878A232E03B4630E0134602E01E
:1025C000002300E013462B4405E0414603F8011BBD
:1025D000591B072907D8072AF7D808A9114411F869
:1025E000141C0132F2E72046C847064600283ED1B7
:1025F0000137BFB2642F38D00B2205A92846D04737
:10260000052FD9D93B465946DA0342EA530331F83C
:10261000022B12FA83F39BB20A88002AF4D10DF13F
:102620001306072203F00F0000F13001392988BF9B
:1026300000F13701013A06F80119C3F30F13002B1B
:10264000F0D17E2108AB134403F8141C002AB5D046
:102650002B78202BB4D02946002301339A42B1D0E5
:1026600011F8010F2028F8D1ADE7072604E0642F08
:1026700000F0AC80042803D0304609B0BDE8F08FEC
:102680009DF81F30EB72C4F81CB09DF81F3013F09A
:10269000020F14D0BBF800307BB1002301339BB292
:1026A0003BF81320002AF9D11933614F87FB032728
:1026B000DB17C3EBA707BFB202E00023F4E7012753
:1026C000002120465B4B984706460028D4D14FF0A6
:1026D000000A5546DFF86481D346DFF85C910AE0D2
:1026E0006B1C9BB29F4273D01D4601212046C847F8
:1026F00006460028C0D121692068C0470646002848
:10270000BAD163691B78E52B00D023B9002DE7D13E
:10271000B4F806A0E4E75D46E7E7714670E04FF6DF
:10272000FF72934202D039F811300BB94BF0400BD5
:1027300080F800B0236801221A71394620463E4BCA
:1027400098470646002897D1013DADB215B32169DF
:1027500020683A4B9847064600288DD1D4F81C9043
:1027600060695FFA85FB9DF8003043730F23C372E5
:1027700007738776C7760BF1FF3101EB410301EB5D
:1027800083012F4A02F10D08019B4FF6FF764FF0AF
:10279000FF0A38E021692068284B98470646002840
:1027A0007FF46AAF6569202200212846254B9847AF
:1027B0000B22A16928461D4B9847A369DB7A03F0D9
:1027C00018032B73236801221A7155E7072653E774
:1027D000012BDFD951462046164B98470646002864
:1027E0007FF44AAFA069184B9847009000270197E3
:1027F000ADE792F800E000F80EA086448EF801A044
:10280000013242458BD0B342F3D001F1010E39F8C9
:1028100011301178435401444FEA132C81F801C060
:10282000002B7FF47AAF71463346E9E77D1940000B
:102830004FECC44E811F400095224000091E40000D
:1028400000D6400091194000B7194000CD23400048
:1028500070B5044600212D4B9847034650B92378A4
:10286000032B09D0002211466078294B9847031C9E
:1028700018BF0123184670BD6379002BF2D00026E3
:10288000E66204F130054FF4007231462846214BD0
:102890009847552384F82E32AA2384F82F325223E6
:1028A00084F8303084F83130612384F832304122AA
:1028B00084F83320722184F8141284F8151284F8F5
:1028C000162284F81732236984F81832C3F30722DA
:1028D00084F819221A0C84F81A221B0E84F81B3271
:1028E000E36884F81C32C3F3072284F81D221A0C13
:1028F00084F81E221B0E84F81F32012362692946C8
:102900006078054DA8476671ACE700BF091E40001E
:10291000B518400091194000451840002DE9F04FCE
:1029200083B082460D460B782F2B0AD05C2B08D043
:102930000023CAF808302B781F2B04D9DFF8FCB22B
:1029400030E10135F4E700215046B64B9847034685
:102950000022CAF814205AE1002B40F0528127F8D7
:10296000022F631C16F8010F2F2818BF1F281BD930
:102970005C2819D0B3F5807F00F043811C464146A6
:10298000D8470246002800F03C817F28E7D822285B
:1029900000F03C812A23A44998B29042DCD011F87F
:1029A000013F002BF8D1DAE71D44202834BF04266C
:1029B0000026002C00F02A816FF00043234409EB2D
:1029C000430239F81330202B01D02E2B08D1013CC3
:1029D00000F01C8132F8023D202BF8D02E2BF6D0CF
:1029E0006700002329F814300B222021DAF81800A0
:1029F0008E4B9847B9F80030202B01D02E2B1FD1D9
:102A000049460023013331F8022F202AFAD02E2A1A
:102A1000F8D00BB146F00306023F09EB070239F884
:102A200007102E2905D0013C03D032F8021D2E29B3
:102A3000F9D1082200924FF00008CDF8048004E09C
:102A40000023E9E746F003063B465F1C39F8130014
:102A5000002866D02028F5D02E2801D1A742F1D138
:102A6000009B984518D2A74216D07F2831D82B2832
:102A70003DD02C236E499AB2824243D011F8013FD7
:102A8000002BF8D1A0F141039BB2192B3DD8019B3B
:102A900043F0020301932DE0009B0B2B0FD0A742C4
:102AA00018BF46F00306A7423BD8019B9B00DBB250
:102AB000019323460B2200924FF00808C5E746F029
:102AC0000306DAF818301A78E52A32D105221A708E
:102AD0002CE00021D8470346002800F09F80554A8B
:102AE000134413F8800C46F002060028BFD146F0CC
:102AF00003065F20DAF8183003F808003B4608F1B7
:102B00000108A2E7002BF2D1BCE7A0F161039BB260
:102B1000192BEFD8019B43F001030193203880B2B9
:102B2000E8E7DAF818301A78E52ACFD0009B082BAE
:102B300052D0019A02F00C030C2B54D002F0030285
:102B4000032A50D016F0020F0BD1019A02F00309AC
:102B5000B9F1010F08BF46F01006042B08BF46F07C
:102B60000806DAF81830DE725046334B9847DAF828
:102B70001830DA7A0346002838D112F0040F46D113
:102B8000DAF81430DA7A12F0100F38D0597D1A7D45
:102B900042EA0122D97E9B7E43EA012343EA0243B3
:102BA000CAF808302B782F2B01D05C2B05D115F8F3
:102BB000013F2F2BFBD05C2BF9D0DAF81C90287842
:102BC0002F2818BF1F281ED95C281CD0A9F1020786
:102BD0002E460124A046D2E6019B4FEA83095FFA04
:102BE00089F30193A5E746F00206ABE704280ED16E
:102BF00002F00402002A14BF0346052307E0052360
:102C000005E0062303E001351F2804D806231846F3
:102C100003B0BDE8F08F00242646CAE646F002065F
:102C200065E700BF811F400091D640009119400028
:102C30009DD6400010D64000CD2340001531400005
:102C4000072801D90B207047064B53F820300BB1F1
:102C500000221A7009B100230B70024B43F82010B8
:102C600000207047280A40202DE9F041ADF50E7D87
:102C70000546019116460023036002F01F0702F08B
:102C80001E0285A901A8584B984782AB8B9302ABD3
:102C90008C9368B103468A9C16F01C0F58D1002B08
:102CA00040F09680E37A13F0100F62D004238FE097
:102CB000019985A84D4B984703468A9C34B928B999
:102CC00016F01C0F40F08980062346E016F01C0F1A
:102CD000E5D0002B3CD1E37A13F0110F7FD116F031
:102CE000040F7ED117F0080F50D0414B9847A073C6
:102CF000C0F30723E373030C2374000E60740023F6
:102D0000E37223776377A377E377627D267D46EAD4
:102D10000226E17EA27E42EA0122A376E3762375B3
:102D2000637585980123037152EA06462CD0D0F8CA
:102D30002C8031462F4B98470346002848D1859870
:102D4000013EC66041462C4B98470346E0B13FE048
:102D5000042B04D047F008078A9CDBB138E085A833
:102D6000264B984747F008078A9C03460028B9D0AD
:102D70002EE016F0020F04D013F0010F01D007234C
:102D800026E016F0080F01D047F02007859BDB6A8C
:102D9000EB612C62AF71627D237D43EA0222E17E0A
:102DA000A37E43EA012343EA02432B61E27FA37F30
:102DB0001B0443EA0263227F1343627F43EA022338
:102DC000EB600023AB60AB61859A2A60D288AA8051
:102DD00018460DF50E7DBDE8F0810623BAE70723FE
:102DE000F6E70823F4E700BF991A40001D294000C8
:102DF0002519400019224000091E40007525400099
:102E00002DE9F04F83B004468946164698460023C4
:102E1000C8F8003081880068754B984701900028F9
:102E200040F0E280A37913F0800F40F0DB8013F0D4
:102E3000020F02D107230193D6E0E368F3420ED2DA
:102E4000002E74D10BE000216A4B984703462061A5
:102E500003E06169674B98470346002B7AD1A3686A
:102E6000E268934288BFE360A37943F02003A37133
:102E7000BAE0A37963F07F03A37102230193B3E067
:102E8000A37963F07F03A37101230193ACE00021D8
:102E9000594B9847002868D0A37963F07F03A3714A
:102EA00001230193A0E0A37963F07F03A3710223C0
:102EB000019399E0A37963F07F03A3710123019348
:102EC00092E04FF4007209EB412130304B4B9847B0
:102ED000236800221A716CE0A268E3689A426BD200
:102EE000A561A568C5F30805C5F50075B54228BFFD
:102EF0003546A1692068404B984700286BD1A068EF
:102F0000C0F30800303023682A46494618443B4B3A
:102F10009847236801221A71A944A3682B44A3602F
:102F2000D8F800302B44C8F80030761B97D0A26840
:102F3000C2F30803002BD4D120688378013B03EA55
:102F4000522313F0FF070BD1002A82D12369002BF3
:102F50003FF479AF012B8CD0B3F1FF3F90D0636188
:102F60002068C26AA3699A4291D0D4F800A061692E
:102F70005046234B98470546002894D03D445FEACD
:102F8000562BA9D09AF8023007EB0B029A4288BF61
:102F9000A3EB070B5FFA8BF32A4649469AF8010028
:102FA000184FB847002885D12068C16A491B8B4556
:102FB00087D84FEA4B25AFE7002150460E4B984784
:102FC00010B92368DD628BE7A37963F07F03A371F7
:102FD0000123019308E0A37963F07F03A371012328
:102FE000019301E002230193019803B0BDE8F08F43
:102FF000D519400059214000091E40007D194000AC
:103000009F1940004518400038B504468188006883
:103010001F4B9847034618B9A27912F0200F01D12F
:10302000184638BDE16920681A4B984703460028C6
:10303000F6D1256AEB7A43F02003EB72E3682B7735
:10304000A3891B0A6B77E389AB77E37BEB77236973
:10305000AB76238A1B0AEB76638A2B75638A1B0A7D
:103060006B750D4B9847A875C0F30723EB75030CE0
:103070002B76000E6876A37923F02003A3712368D2
:1030800001221A712068054B98470346C8E700BF24
:10309000D5194000091E4000251940005128400064
:1030A00010B50446034B9847034608B90022226036
:1030B000184610BD0930400010B582B00C468DF89E
:1030C000000001AB012269462046054CA047019B48
:1030D000012B0CBF01204FF0FF3002B010BD00BF2C
:1030E000012E4000F8B503787BB10E460546441C1E
:1030F000074F31461846B847B0F1FF3F06D0601B76
:1031000014F8013B002BF4D1F8BD0020F8BD00BF3E
:10311000B93040007F2819D971B9C72813D00C4A9B
:10312000012332F8021F814203D001339BB2802B6E
:10313000F7D18033D8B27047FF2806D88038044BC7
:1031400033F8100070470023F3E70020704700BFFA
:10315000A4D6400061280ED008490022013231F87F
:10316000023F834201D0002BF8D11BB1044B33F84E
:103170001200704770470022F8E700BFA4D7400054
:1031800084D94000102808D1B1F1805F05D108B57D
:10319000024B1B6803B1984708BD70474C0A40209A
:1031A00050B170B5441E054E054D3046A847013C50
:1031B000B4F1FF3FF9D170BD704700BF3516030071
:1031C000010040202DE9F041094F4FF40038C7F8C5
:1031D0003480084D08266E636420074CA047C7F86A
:1031E00030806420A0472E636420A047BDE8F081B2
:1031F00000120E4000100E40A131400010B5002218
:10320000144B1A600A20144CA0470B20A0470C2036
:10321000A0471020A0471120A047104B08221A6198
:10322000C3F8A0201A630E4A4FF400311161C2F8AE
:10323000A010116304221A61C3F8A0201A63094B7D
:103240001B6813F0010F01D0064B1B68064B984713
:10325000002010BD4C0A40205166400000100E4076
:1032600000120E4010E000E0C531400030B583B0E0
:10327000144B18601020144B98474FF020517C20BD
:10328000124B9847124C01224FF080512046114BAF
:103290009847114B009351234FF080521021204644
:1032A0000E4DA8474FF0805120460D4B98474FF4E4
:1032B00080320C4B1A600022102120460A4B98479E
:1032C00003B030BD4C0A40205166400059624000B6
:1032D00000140E401D61400085314000D96340005C
:1032E0004962400000E100E0AD64400008B528B943
:1032F0004FF080510448054B984708BD4FF080516E
:103300000148034B984708BD00140E404D62400031
:1033100049624000F8B5394C4FF480112166C4F879
:10332000901061656162C4F88010236F0B432367BE
:10333000636F23F4801363674FF400122266C4F8AE
:10334000902062656262C4F88020236F1343236774
:10335000636F23F4001363674FF480032366C4F89C
:10336000903063656362C4F88030206F1843206733
:10337000606F20F4800060676160626063604FF09E
:10338000007666602660266126631D4D28461D4B2B
:10339000984702232B6080232B606B6843F0010366
:1033A0006B606B6843F010036B6001212846164B7D
:1033B0009847002201212846144B984701221146C4
:1033C0002846134B9847002201212846114B984765
:1033D00011491248124B9847C2B201212846114B9D
:1033E000984700231A46012128460F4FB84701236A
:1033F0002B6026630D4B98470020F8BD00140E404B
:1034000000800040A5664000D16640004B67400048
:10341000696740008767400000A3E111006CDC028F
:103420009B674000B1674000D9674000C53140004C
:103430002DE9F04F83B0032844D10E684D680C8904
:1034400000238DF80430ADF8063086B1002D36D15A
:103450004FF00108994601AD4FF00072204B5A63BE
:103460002CB3204FDFF894B0DFF894A006E04FF0C3
:1034700000084FF0010901AEEEE7C4B100231A467F
:1034800031783846D8470DF105020DF1060138466E
:10349000D047BDF806302B70013CA4B2B8F1000F44
:1034A00000D10135B9F1000FE7D10136E5E74FF062
:1034B00000720B4B1A63002003B0BDE8F08F6FF071
:1034C0000500F9E740F21F1207490848084CA047D9
:1034D0000848A0470848A0474FF0FF30ECE700BF7E
:1034E00000140E400080004064DB400074DB4000AC
:1034F0002173400088DB400028E940001767400046
:10350000E766400002220E4B1A6003F5592303F5CB
:1035100080634FF400125A61C3F8A0204FF4801268
:103520005A61C3F8A0204FF480025A61C3F8A0206A
:103530004FF000725A61C3F8A0200020704700BF0E
:10354000008000403AB10139821811F8013F00F8BB
:10355000013B9042F9D1704722B1821800F8011B5B
:103560009042FBD17047037843B1002301339BB2F3
:1035700010F8012F002AF9D1184670470023FBE705
:10358000024A13780133DBB213707047530A4020AC
:103590007047000000B583B001200B4B984701A98C
:1035A00041F27000094B9847034618B1184603B022
:1035B0005DF804FB019941F00201019141F27000B4
:1035C000034B98470346F1E7ED3240008148400045
:1035D0008D48400008B5124B1B784BB9114B1B7836
:1035E000DBB2032B0CD00F4B1B78DBB2042B07D0C4
:1035F0000B4A13780133DBB213700023184608BD61
:10360000094B984703460028F8D145F2786141F20A
:103610007400064B984703460028E9D0EEE700BF48
:10362000510A4020500A4020F14340008D4840009C
:103630001E4B1B7823B11D4A1378013BDBB213707C
:103640001A4B1B78002B2ED1194B1B78DBB2032BA6
:1036500006D0174B1B78DBB2042B01D0002323E0EC
:1036600000B583B00023019344F2213141F274008C
:10367000104B9847034618B1184603B05DF804FB99
:1036800001A901200C4B984703460028F4D1019969
:1036900011F0020FF0D021F0020101910120054B41
:1036A00098470346E8E7002318467047510A402030
:1036B000500A40208D484000814840002DE9F04FDD
:1036C00087B00746884692469946109CBDF84460EC
:1036D000BDF8485001F07F038DF815308DF81400C7
:1036E0000823ADF81630002C00F09F80BDF816308E
:1036F00016FA83F32B449BB2ADF816305C4B984717
:103700008346002840F0A28000230393ADF80630E2
:103710000293029B1F430297029B43EA08230293F2
:10372000BDF81620029B43EA02430293029941F23C
:103730008C00504B98478346002840F0918000232E
:103740000293029B43F002030293029941F2780034
:10375000484B98478346002840F08280002303931B
:10376000ADF80630BDF806309BB2B3F57A7F16D2BD
:1037700041F27808404F02A94046B84778B9029B09
:1037800013F0020F59D0BDF8063001339BB2ADF8EB
:103790000630BDF806309BB2B3F57A7FEBD3039BBE
:1037A000002B61D0039B0493BDF816309BB2ADF89B
:1037B00016300498082205A9304B98478346002804
:1037C0004ED1049B08330493BAF1000F0AD0049839
:1037D0004A465146294B98478346002840D1049BCE
:1037E0004B4404937CB1049BA5EB09051D4404954F
:1037F000049832462146214B9847834600282FD112
:10380000049B1E440496039B9B000293029B43F07F
:1038100002030293029941F26C00164B98478346CB
:10382000F0B9174B984783461AE0BDF8163019FADD
:1038300083F39BB2ADF8163060E703A911480E4B35
:1038400098470028ABD000230393A8E740F29F12CB
:103850000D490E480E4CA0470E48A0470E48A04701
:10386000584607B0BDE8F08F6FF0020BF8E700BFD5
:10387000D53540008D48400081484000F548400063
:103880003136400000041500A0DB400074DB40002E
:1038900021734000F4DD400028E940002DE9F043A9
:1038A00087B0DFF8F892A24FA24EDFF8F482D5E09D
:1038B000042204A90598A04B9847BDF812309BB28A
:1038C000ADF812300446002830D1BDF812309BB25A
:1038D0009D4205D0BDF812309BB2EB1A042B33DCAD
:1038E0009DF81030DBB2012B47D09DF81030DBB2D1
:1038F000022B5FD09DF81030DBB2042B68D09DF80E
:103900001030DBB2062B71D09DF81030DBB2072BE4
:103910007AD040F2022241463046884CA04788487F
:10392000A0478848A0476FF0050496E04FF4EB727B
:1039300041463046814DA8478348A8478148A8475B
:103940000120824B984788E040F2DF124146304622
:103950007A4CA047BDF812209DF810309DF8111048
:10396000009192B229467A48A0477648A0470120A4
:10397000764B98476FF005046FE0764B1B6843B1B8
:103980009DF81100BDF812100839059A083289B265
:103990009847714B1B78002B5CD140F209224146BD
:1039A0003046664CA0476D48A0476648A0476C4B20
:1039B00098474FE06B4B1B68002BEAD09DF8110035
:1039C000BDF812100839059A083289B29847E0E725
:1039D000654B1B68002BDCD09DF81100BDF8121060
:1039E0000839059A083289B29847D2E75F4B1B68BD
:1039F000002BCED09DF81100BDF812100839059AA1
:103A0000083289B29847C4E7594B1B68002BC0D0D5
:103A10009DF81100BDF812100839059A083289B2D4
:103A20009847B6E740F2112241463046434CA04742
:103A30005048A0474348A0476FF001042FE04FF4DF
:103A40000672414630463D4CA04703994A48A0477C
:103A50003C48A047494B9847044604BB99F80030BE
:103A6000002B00F09F8099F80030013BDBB289F811
:103A700000301FE040F21E22414630462F4DA8473D
:103A80003F48A8472F48A84709E04FF4097241462C
:103A900030462A4DA8473B48A8472A48A84740F245
:103AA000432239493046254DA84721463748A84783
:103AB0002448A847B84704460028E6D103A941F2A4
:103AC0007000334B984704460028D3D1039B13F072
:103AD000010FB4D01D4B9847039921F001010391C8
:103AE00041F270002B4B984704460028D7D10022A2
:103AF000194B1A70039DC5F38B05002D92D006A9B2
:103B000041F8042D41F28400214B984704460028D7
:103B10003FF4CEAE4FF4E77241463046074DA8471A
:103B20001D48A8470748A8470120084B984794E735
:103B3000D535400074DB40009948400021734000B7
:103B400060DC400028E9400008DC4000ED32400025
:103B500020DC4000680A4020520A402078DC400007
:103B6000953540005C0A4020600A4020540A4020FD
:103B7000640A40209CDC4000B0DC4000313640004C
:103B8000CCDC4000F0DC4000B4DB400010DD400045
:103B9000814840008D484000E0DB4000530A40204F
:103BA000ACDB4000002007B0BDE8F0832DE9F04316
:103BB00083B01C46002A18BF002903D005460F46D3
:103BC0001646B8B94CB10122324B1A70324B9847A5
:103BD0000346184603B0BDE8F08340F269222F493E
:103BE0002F48304CA0473048A0473048A0476FF0DE
:103BF0000B03EEE7694641F270002D4B98470346F0
:103C00000028E6D1DDF8008001A941F28400284BAC
:103C1000984703460028DCD1C8F38B0846451CD8DA
:103C2000019B9D4228D305EB06094344994523D8BF
:103C30003246394628461F4B984703460028C8D1CC
:103C4000019A9044C84501D0002CC2D00122114BEA
:103C50001A70114B98470346BBE740F27A220F498E
:103C60000F48104CA047424631461348A0470F4822
:103C7000A0476FF00B03ACE74FF4207207490848E8
:103C8000084CA0470D48A0470848A0476FF00B0319
:103C90009FE700BF520A402095354000C4DB40003A
:103CA00074DB40002173400040DD400028E9400003
:103CB000814840009948400060DD4000A4DD40009C
:103CC00038B5431E062B1DD8DFE803F00804100C9E
:103CD0001C141800134B1960002038BD124B1960DA
:103CE000002038BD114B1960002038BD104B196001
:103CF000002038BD0F4B1960002038BD0E4B1960F5
:103D0000002038BD044640F2B9220C490C480D4D44
:103D1000A84721460C48A8470C48A8476FF00B005D
:103D200038BD00BF5C0A4020680A4020600A40207D
:103D3000580A4020540A4020640A4020D0DB40004A
:103D400074DB400021734000E8DD400028E94000BA
:103D500010B50024094B1C60094B1C60094B1C70FA
:103D6000094B1C70094B1C7009480A4B98470A49BB
:103D700003200A4B9847204610BD00BF680A402028
:103D80005C0A4020510A4020500A4020530A40203B
:103D9000813540006D32400091354000C13C40000B
:103DA00030B59FB015462C282ED004461B283BD09A
:103DB000062849D00E2825D0322855D02F2863D088
:103DC000342876D0112800F09380132800F0A880C2
:103DD000042800F0B780652800F0C680092800F0AC
:103DE000D5802A2800F0E480202800F0F3804FF4EA
:103DF000957286498648874DA84721468648A84738
:103E00008648A8471FB030BD0023042203A92846D6
:103E1000834CA0470028F5D1824B1B68002BF1D0C2
:103E200003A92C209847EDE70023082203A9284680
:103E30007B4CA0470028E5D17A4B1B68002BE1D0D2
:103E400003A91B209847DDE70123302203A9284658
:103E5000734CA0470028D5D1724B1B68002BD1D0E2
:103E600003A906209847CDE70023102203A928467E
:103E70006B4CA0470028C5D16A4B1B68002BC1D0F2
:103E800003A932209847BDE76422002103A8664BAE
:103E900098470023642203A92846614CA0470028C4
:103EA000B0D1604B1B68002BACD003A92F209847E2
:103EB000A8E70023042203A92846594CA04700285C
:103EC000A0D15A48534CA0470399CBB20093C1F3F9
:103ED0000723C1F30742090E5548A0474F48A047A2
:103EE000504B1B68002B8DD000213420984789E768
:103EF0000023504A1370042203A92846484CA047C7
:103F000000287FF47FAF9DF80C204B4B1A70454B77
:103F10001B68002B3FF476AF03A91120984771E787
:103F200000232C2203A928463D4CA04700287FF4FB
:103F300069AF3C4B1B68002B3FF464AF03A913200F
:103F400098475FE7002304221CA92846344CA04769
:103F500000287FF457AF334B1B68002B3FF452AF60
:103F60001CA9042098474DE7002304221CA92846D9
:103F70002B4CA04700287FF445AF2A4B1B68002B31
:103F80003FF440AF1CA9652098473BE7012364221A
:103F900003A92846224CA04700287FF433AF214BC9
:103FA0001B68002B3FF42EAF03A90920984729E78F
:103FB0000123042203A92846194CA04700287FF4B6
:103FC00021AF184B1B68002B3FF41CAF03A92A201C
:103FD000984717E70023082203A92846104CA0475A
:103FE00000287FF40FAF0123BDF81020039905F1DD
:103FF0000800A04700287FF405AF0A4B1B68002B80
:104000003FF400AF03A920209847FBE614DE4000F0
:1040100074DB40002173400070DE400028E940005E
:10402000AD3B40006C0A40205935400044DE400062
:1040300050DE4000710A4020700A4020F0B58BB07D
:1040400001238DF80730002850D00268294B1A60F0
:104050000022294B1A700DF10700284B984704469F
:1040600010B120460BB0F0BD254B98470446002800
:1040700038D124490120244B984702A8234B984764
:104080000446234F3846234DA8479DF80E309DF82F
:104090000D209DF80C102048A847204E3046A84718
:1040A0003846A8479DF811309DF810209DF80F1054
:1040B0001B48A8473046A8473846A8470023032294
:1040C00013211848A8473046A84714F10D0FC8D14E
:1040D00040F2D51214491548A8471548A84730465C
:1040E000A847BEE70020134B9847BAE76FF00B04D0
:1040F000B7E700BF6C0A4020710A4020014A400027
:10410000513D4000A13D4000C13C400051494000AC
:1041100044DE40002173400030DF400028E94000C9
:104120004CDF400068DF400020DE400074DB4000D0
:1041300084DF4000CD4A400008B5014B984708BDD8
:104140009D3840002DE9F041A0B080460D46144650
:104150001E46BDF89870012A03D0002B37D0022AE2
:1041600042D06B1EDBB21F2B75D8FF2F01D00D2F55
:104170007ED82A4641460DF15A00774B984720AB2E
:104180001D44002305F8263CADF858709DF89C307E
:10419000003318BF01238DF87B308DF85540032C78
:1041A00073D0022C00F0AA80042C00F0C180012CF6
:1041B00040F0C48000230293019300936C2305AA6E
:1041C00028210120654CA04720B0BDE8F08140F2D5
:1041D000032263496348644CA0476448A04764488D
:1041E000A0476FF00B00EFE71846624B9847402856
:1041F000B7D13378A3F13A02D2B2062A1ED9A3F17D
:104200003002D2B2362A19D8473BDBB2192B15D966
:10421000314606F13F0011F8013FA3F13A02D2B254
:10422000062A0BD9A3F13002D2B2362A06D8473B70
:10423000DBB2192B02D98842EDD192E740F20F226E
:1042400047494848484CA0474B48A0474848A047E2
:104250006FF00B00B8E740F2192241494148424C47
:10426000A0474648A0474248A0476FF00B00ABE785
:1042700040F222223A493B483B4CA0474048A047E5
:104280003B48A0476FF00B009EE73378013BDBB261
:104290008DF81430032B13D87278531E8DF8153017
:1042A00002F0EF030B2B1AD1B11C0DF116002A4BB3
:1042B0009847737820AA1344002203F86A2C79E700
:1042C00040F2392226492748274CA0479DF8141070
:1042D0002C48A0472648A0476FF00B0074E74FF426
:1042E00010721F491F48204CA0479DF81510264802
:1042F000A0471F48A0476FF00B0065E730461D4BF5
:104300009847431E9BB23F2B05D8421C314605A857
:10431000114B98474EE740F24F2211491148124C79
:10432000A0471A48A0471248A0476FF00B004BE780
:104330003E22314605A8084B98473BE740F25F22F2
:1043400007490848084CA0471148A0470848A0471B
:104350006FF00B0038E700BF45354000BD36400028
:1043600030DE400074DB40002173400084DE4000FA
:1043700028E940006735400098DE4000A8DE400094
:10438000BCDE4000C8DE4000E4DE400000DF40004C
:104390001CDF400010B582B000240194BDF810402D
:1043A0000094024CA04702B010BD00BF4541400040
:1043B00000207047F0B583B004464FF4A5550A4E6F
:1043C0000A4F21462846B04754B102A9002341F8BC
:1043D000043D2846B8470028F3D1019B9C42F0D108
:1043E000002003B0F0BD00BF8D4840008148400070
:1043F0002DE9F04F83B001203C4B984701A90120E3
:104400003B4B9847824638B900244FF00108DFF84B
:104410000891364D374F20E0722237493748384CE3
:10442000A0473848A0473848A04709E096223249BB
:104430003248334CA0473548A0473348A047B246DE
:10444000504603B0BDE8F08F019941F002014046AB
:10445000C847009B13F0040FF2D1019941F002010B
:104460004046C8474046A8476946294B1868204B34
:10447000984708B9009BBBB9254E0E2333604046D0
:10448000A847694630681A4B984708B9009B5BB942
:104490001F4E132333604046A84769463068144BCB
:1044A000984706460028C1D1194E009B13F0040F0F
:1044B000C6D10134A7FB04235B0803EB43039C42F2
:1044C000C2D10220A84769463068094B9847009B33
:1044D00013F0040FE9D1AA2207490848DFF820B0F9
:1044E000D8470C48D8470848D847DEE7A1314000F4
:1044F00081484000ABAAAAAAA0DF400074DB4000BC
:104500002173400010E0400028E9400030E0400006
:104510003400402050E040008D48400000B583B09A
:1045200001A941F20840154B9847E8B9019941F4B7
:104530008071019141F20840114B9847B8B901A927
:104540004FF4D0500D4B9847A0B9019941F48031F8
:1045500001914FF4D0500A4B9847002818BF6FF0D4
:10456000050003B05DF804FB6FF00500F9E76FF09C
:104570000500F6E76FF00500F3E700BF8148400053
:104580008D48400010B582B0254B1C6824B1244BE7
:104590001C68204602B010BD19464FF48050214BD4
:1045A000984718B100221E4B1A60F2E701A941F2A8
:1045B000F4301C4B984718B10022194B1A60E8E7F9
:1045C000174B1B68184A93420DD0184A934211D0DA
:1045D000174A934218D0124A136823F4702343F405
:1045E000A0231360D3E7019B012BF4D001320C4BC5
:1045F0001A60F0E7019B032BEDD0042B0CBF0132B6
:104600000C4A074B1A60E6E705494FF46C10054B5E
:1046100098470028DFD00022014B1A60B9E700BF9D
:10462000740A402081484000A0021000B00210002F
:10463000F0001000B20210002DE9F041074641F2EF
:104640001405284C284E2846A047002802DB0120EC
:10465000B047F8E72548234B984710F0010F10D1D9
:10466000DFF884801F4E224D0120C0474FF00C1010
:10467000B04704462A4601461E481F4B9847AC42A5
:10468000F2D1022F19D0032F22D0042F14BF0024FF
:1046900080241A4B9847C0F30B00B0F5687F0CBF1D
:1046A00044F002002046164B984716494FF00C1074
:1046B000154B98470020BDE8F08114491448124C6E
:1046C000A0474FF4801141F28C00A0470024E0E79E
:1046D0000E490F480C4CA047002141F28C00A04726
:1046E0000024D6E775484000A1314000BC07020015
:1046F0009ED0AD1074E0400021734000854540001D
:10470000B5434000612F52EF8D4840007DD51C3CE1
:10471000AC070200F0B583B041F28C030193184B53
:1047200000930238C0B2012811D94FF0FF340020A5
:104730000227144E144D009B984212D03846B047C1
:104740000198A847013CF6D16FF004000EE00F4B32
:104750000193A3F12253A3F51113A3F2E95300939C
:10476000E3E7009A064B9A4202D0002003B0F0BD66
:10477000002141F28C00064B98470020F6E700BF6D
:1047800036265302A131400075484000AC070200B4
:104790008D484000F0B583B002A9002341F8043DE4
:1047A0004FF4A050244B984720BB019921F480611D
:1047B00001914FF4A050214B9847054628BB0A248D
:1047C0001D4E1E4F01A94FF4A050B047054638BBFF
:1047D000019911F4806F0AD021F4806101914FF4A6
:1047E000A050B8470546631E13F0FF04EAD12846DF
:1047F00003B0F0BD40F2312211491248124CA047DB
:104800001248A0471248A047CFE740F237220C4990
:104810000C480D4CA0470F48A0470D48A047E6E7BD
:1048200040F23E2206490748074CA0470A48A047E5
:104830000748A047DBE700BF814840008D484000A3
:10484000B0DF400074DB400021734000BCDF40005B
:1048500028E94000D8DF4000F4DF400008B5014BF4
:10486000984708BD1533400008B5014B984708BD6F
:104870000535400008B5014B984708BDC9504000B8
:1048800008B5014B984708BDE150400008B5014B01
:10489000984708BDF95040002DE9F0470746894682
:1048A0001546124BB3F80080A8F108081FFA88F8E3
:1048B000424519D944460026DFF834A0424609EBA8
:1048C00006013846D047034658B92D1B26442744D5
:1048D000A542F3D8AAB209EB06013846044B984723
:1048E00003461846BDE8F0870026F3E73000402075
:1048F000255240002DE9F047074689461546124BE0
:10490000B3F80080A8F108081FFA88F8424519D9C1
:1049100044460026DFF834A0424609EB060138463B
:10492000D047034658B92D1B26442744A542F3D847
:10493000AAB209EB06013846044B984703461846CD
:10494000BDE8F0870026F3E730004020ED5240003C
:1049500030B583B0044602A9002341F8043D244841
:10496000244B98470546019A234B9A4239D0019B24
:104970001A0C91B2080AE071C1F30311217202F01E
:104980000F0262729AB2110A2171C2F303126271AC
:1049900003F00F03A371194B984720602279A37984
:1049A00003F00F0343EA022362791201D2B21343E8
:1049B000E179627A02F00F0242EA0122217A0901CA
:1049C000C9B20A4341F230318A4288BF6FF00C0508
:1049D00041F22F3293428CBF28466FF00C0003B097
:1049E00030BD01A941F24800024B98470546BEE799
:1049F000AC07020081484000C3C15DD78545400037
:104A000038B5002837D00478631EDBB2042B28BFEA
:104A1000012400201E4B9847054600282DD11D4833
:104A20001D4DA8471D4B984701461D48A8471D48E6
:104A3000A8471D4B984720461C4B98470546B0B9E0
:104A400020461B4B9847054688B9023CE4B2012C2E
:104A50000FD9184B9847054658B14FF4AE72164916
:104A600016480D4CA0471648A0470E48A047154BC6
:104A70009847284638BD0124CBE74FF492720E497F
:104A80000E48054CA0471048A0470648A047F0E74D
:104A90005D48400044DE40002173400085454000F1
:104AA0003CE1400028E940001151400039464000F7
:104AB000154740001D45400084E0400074DB400085
:104AC00000E140006948400020E1400038B5194B42
:104AD000984758B90020184B9847044698B9174B87
:104AE00098470446D0B9164B98470AE004464FF45D
:104AF000BA7214491448154DA8471548A8471548D7
:104B0000A847204638BD40F27B120E490E480F4D93
:104B1000A8471148A8470F48A847F2E740F281127A
:104B200008490948094DA8470C48A8470948A8471B
:104B3000E7E700BF95474000715B400069484000CF
:104B4000BD50400090E0400074DB40002173400005
:104B5000A0E0400028E94000C0E04000E4E0400060
:104B600000B585B0002301930290ADF80C1001A9A7
:104B70000320024B984705B05DF804FB3134400038
:104B80002DE9F04182B0054600F13B03DBB2012B79
:104B900027D9CF2825D00B244FF00108234F4146B9
:104BA0000DF10700B847064620BB9DF80730AB4221
:104BB0002CD0631E13F0FF04F1D10B2401271B4DF1
:104BC00039460DF10700A84710BB9DF8073053B3D5
:104BD000631E13F0FF04F3D10126304602B0BDE896
:104BE000F08101210DF10700104B98470028D2D029
:104BF0000026F2E740F227120D490E480E4CA0475E
:104C00000E48A0470E48A0470026E6E70B24D5E74C
:104C100040F2351206490748074CA0470748A0470D
:104C20000748A047D9E70126D7E700BF614B4000FE
:104C300054E1400074DB40002173400094E54000E3
:104C400028E940002DE9F04F85B083468A46174693
:104C50004FF00009374D27E040F2571236493748E8
:104C6000374CA0473748A0473748A0470023019357
:104C7000019805B0BDE8F08F002C2EDD41460BEB0E
:104C80000900A8470446002834D11FB92F4B1B78D0
:104C9000002B3AD0C1440FFA89F9AAEB080A1FFA8F
:104CA0008AFABAF1000F41D0D046BAF5005F28BFAA
:104CB0004FF400580A24012631460DF10B00A84795
:104CC00001900028C8D19DF80B301B090F2BD3D0C1
:104CD000013C24B2B4F1FF3FEED140F26312164919
:104CE0001648174CA0479DF80B101948A0471648C6
:104CF000A047BDE74FF4B6720F491048104CA047CB
:104D00001448A0471048A047B2E7022103A8A847CB
:104D10000028BFD040F2771207490848084DA8473D
:104D20000D48A8470848A8470194A1E7012301932B
:104D30009EE700BF614B400060E1400074DB400033
:104D400021734000C8E5400028E94000780A40206F
:104D5000FCE540002CE6400060E6400000B585B070
:104D6000019000230293ADF80C1001A90320024B1F
:104D7000984705B05DF804FB3134400070B584B04D
:104D80009DF820408DF80400C1380E2800F2A28062
:104D9000DFE800F0454566192A3354547F08A0A087
:104DA000A0A03C000B0C8DF805300B0A8DF80630E6
:104DB0008DF807100521554B1B78002B00F08C80D7
:104DC0000139C9B29AE0C1F3072344B98DF805301F
:104DD0008DF8061000238DF807300521EBE763F00E
:104DE0007F038DF80530F3E700238DF805308DF84B
:104DF00006308DF807300521DDE700238DF80530FA
:104E00008DF806308DF807300521D4E7FF238DF8A3
:104E100005308DF806308DF807300521CBE70A0CF8
:104E20008DF805200A0A8DF806208DF807101A0A59
:104E30008DF808208DF809300721BCE70A0C8DF8A1
:104E400005200A0A8DF806208DF807101A0C8DF837
:104E500008201A0A8DF809208DF80A300821AAE7DF
:104E6000C1F3072384B98DF805308DF80610130EB1
:104E70008DF80730130C8DF80830130A8DF80930BF
:104E80008DF80A20082196E763F07F038DF805303E
:104E9000EBE70B0C8DF805300B0A8DF806308DF81A
:104EA0000710130E8DF80830130C8DF80930130A13
:104EB0008DF80A308DF80B2009217CE74FF48472BD
:104EC00013491448144CA0471448A0471448A0475D
:104ED000002019E0002017E04E1E01AB9D197F2035
:104EE0001A46104C12F8013B83EA4003E05C9542FD
:104EF000F8D104AB1E44430006F80C3C01A80A4B51
:104F000098470028DAD1012004B070BD780A40200B
:104F10004CE1400074DB40002173400068E5400034
:104F200028E94000C8E140005D4D400070B582B006
:104F30000446312835BF01230023C325C92500932A
:104F400004230A4601462846154EB04701280DD0D5
:104F500040F2EB1213491448144DA8472146144857
:104F6000A8471448A847002002B070BD2846124B3D
:104F700098470128F8D040F2F1120A490A480B4D2F
:104F8000A84721460D48A8470A48A847002400948E
:104F9000234622462146CF20014DA8472046E3E77D
:104FA0007D4D400080E1400074DB400021734000F3
:104FB00018E7400028E94000814B400044E74000EA
:104FC0002DE9F04184B004468846B0F5807F35BFB6
:104FD00001260026C425CA25009604230022014686
:104FE00028462C4FB84701280ED040F245222A49C6
:104FF0002A482B4DA84721462A48A8472A48A847AF
:10500000002004B0BDE8F0812846284B98470128CD
:1050100014D040F24B2220492048214DA847214678
:105020002348A8472048A847002400942346224646
:105030002146CF20174DA8472046E2E732460421FB
:1050400003A81C4B9847012810D19DF80D209DF80E
:105050000E301B0443EA02239DF80C2013439DF8F5
:105060000F2043EA0263C8F80030CAE740F2532237
:1050700009490A480A4CA0470F48A0470A48A047D8
:1050800000240094234622462146CF20014DA84704
:105090002046B6E77D4D4000A0E1400074DB4000B3
:1050A0002173400098E6400028E94000814B400011
:1050B000C4E64000454C4000F8E640000020014BAB
:1050C00018707047780A402000B583B001A9034BDF
:1050D0009847019803B05DF804FB00BFC14F400042
:1050E00008B5044B984701280CBF00206FF005005D
:1050F00008BD00BFC14F400008B5044B98470128C8
:105100000CBF00206FF0050008BD00BF2D4F400010
:1051100030B583B0002302A941F8083D344A13702A
:105120004EF62400334B984748B3314B1B787BB97C
:10513000009921F07C0141F0500100914EF62400CD
:105140002D4B98470446002839D00122284B1A706D
:1051500001A94FF48050274B984700283AD04EF6CB
:105160002400264B984720F0700141F050014EF684
:105170002400234B98470024204603B030BD012271
:105180001B4B1A7040F2C5221E491F481F4CA047F6
:105190001F48A0471F48A04769464EF62400154BFC
:1051A000984704460028C0D14FF43272154916487A
:1051B000164DA8471848A8471648A847DCE740F20C
:1051C000D22210491048114DA8471448A847114849
:1051D000A847D1E74FF437720A490B480B4CA04758
:1051E0000F48A0470B48A0476FF00504C4E700BF75
:1051F000780A4020C14F40002D4F4000C950400068
:10520000F9504000BCE1400074DB400021734000D5
:10521000C8E2400028E9400018E3400048E34000AD
:105220007CE34000F0B583B004460F4615460022EB
:1052300000922B460146C820224EB04701280ED0CE
:105240004FF41D7220492148214DA847214621488D
:10525000A8472148A8476FF0050003B0F0BDC8205B
:105260001E4B9847012812D040F27A22164917485F
:10527000174DA84721461A48A8471748A8470021B4
:1052800000910B460A46CF200E4CA047E3E70022D0
:1052900029463846134B9847012811D04FF4217204
:1052A00009490A480A4CA0470F48A0470A48A047A6
:1052B000002100910B460A46CF20024CA047CAE7C6
:1052C0000020CAE77D4D4000B0E1400074DB4000A3
:1052D00021734000A4E3400028E94000814B4000D6
:1052E000D4E34000454C40000CE440002DE9F0437D
:1052F00085B0044688461546002200922B4601469A
:10530000C7204D4EB04701280FD040F20F224B4925
:105310004B484C4DA84721464B48A8474B48A84707
:105320006FF0050005B0BDE8F083C720484B9847F3
:10533000012812D040F2152240494148414DA8476A
:1053400021464448A8474148A847002100910B4600
:105350000A46CF20384CA047E2E70024ADF80C40C5
:105360003D4FDFF80C911DE0B5F5005F94BF0323BE
:10537000022363F00F038DF80B3001210DF10B00B8
:10538000B847E8B9314608EB0400B847002835D1E2
:1053900099F80030002B3CD0344424B2AD1BADB2A0
:1053A000002D46D02E46B5F5005F28BF4FF40056BD
:1053B000002CD9D1B5F5005F94BF03230123D8E7B2
:1053C0004FF4D47225491E481E4CA0472448A047DC
:1053D0001E48A04740F2262218491948194CA047F8
:1053E0002048A0471948A04700240094234622469D
:1053F0002146CF20104DA847204693E740F2B11236
:1054000016490F480F4CA0471748A0470F48A04720
:10541000E0E7022103A8B8470028BDD040F2BB1244
:105420000E490748074CA0471048A0470748A04727
:10543000D0E7002076E700BF7D4D400090E14000BE
:1054400074DB40002173400034E4400028E9400050
:10545000814B400064E440005D4D400070E140003D
:105460009CE4400040E54000D4E4400008E54000F2
:10547000780A40202DE9F84FBDF8284094B18146C4
:105480000E469246984603012249CB5853B101EB90
:1054900000139B889BB22BB101EB00139B7ADBB20C
:1054A000012B01D0BDE8F88FF48001EB0017DFF885
:1054B0007CB006E0254601230BE0641BA4B2A8449F
:1054C000ECB1BB88E31A1BB2002BF3DDBD88ADB293
:1054D000002339682A464046D84790B93B68336074
:1054E000B580F3885B1BF3800B4B1B68002BE4D06B
:1054F000094B1B683246514648469847DDE7BDE8F0
:10550000F88F0648064DA84721460648A847064892
:10551000A847C7E79C1640204C17402044DE4000B7
:10552000217340007CE7400028E94000AD3B40008B
:10553000F0B599B01446412849D00D4642285FD0B5
:10554000432875D0442800F0B0804B2800F0AD808F
:105550004A2800F0CC80A0F14603DBB2072B00F212
:10556000F480852222FA03F313F0010F00F0ED809E
:10557000482814BF062709270023102203A9204624
:10558000934EB047002840F0B0809DF91800BDF858
:105590001A10904A02EB001200231373BDF914E0B5
:1055A000BDF81630BDF80E60ADF82660049E0A9670
:1055B000D28892B2914200F0AC80102D40F29580DA
:1055C0000123002211461046814CA0478DE00023A4
:1055D000042207A920467E4CA047002840F0858081
:1055E0009DF81D308DF80C307B4B1B68002B7CD058
:1055F000794B1B6803AA01219DF91C00984774E0B0
:105600000023042207A92046714CA04700286CD132
:105610009DF81D308DF80C306F4B1B68002B64D04B
:105620006D4B1B6803AA02219DF91C0098475CE0A2
:1056300000230C220DEB02012046654CA0470028F8
:1056400053D19DF91530002B19DB624A02EB03128E
:105650000021D1720121917260490A88013292B20F
:105660000A800A8892B21AB90A88013292B20A8074
:105670005A4A118889B2574A02EB0312D1808DF839
:105680001C300223ADF82030BDF80E30ADF82230CA
:10569000049B0993504B1B683BB34F4B1B6807AAF5
:1056A00004219DF9140098471FE00023042207A954
:1056B0002046474CA047C0B99DF91C008DF80C004E
:1056C0009DF91D308DF80D303BB9BDF81E30083BFB
:1056D0009BB2404A02EB001213813F4B1B6823B17F
:1056E0003D4B1B6803AA0521984719B0F0BD002364
:1056F000442207A92046364CA0470028F5D1384B54
:105700001B68002BF1D0364B1B68179907A89847E8
:10571000EBE7BEF1000F01DDAE450DDBADF820E09B
:10572000002307932C4B1B68002BDED02A4B1B68F1
:1057300007AA39469847D8E71FFA8EF20092234409
:105740003A4607A9274CA047CFE700F0FD03452BB9
:1057500019D04C2817D05228C7D10123142207A9E9
:1057600020461B4CA0470028BFD11F4B089A1A6047
:105770001B68002BB9D01C4B1B689DF82C20099985
:1057800007989847B1E7472814BF07250825002345
:10579000082207A920460E4CA0470028A5D19DF954
:1057A0001C00BDF82020BDF81E30ADF80C30094BB0
:1057B00003EB0013DB889BB29A4296D1064B1B6821
:1057C000002B92D0044B1B6803AA294698478CE70C
:1057D000AD3B40009C1640204C1740207A0A4020E8
:1057E00054174020755440005017402008B50A4B0C
:1057F0001B7803B108BDB02200210848084B984728
:1058000008490220084B98470122034B1A700022D6
:10581000064B1A80EEE700BF790A40209C16402014
:105820005935400031554000C13C40007A0A4020C3
:10583000024B1860024B1960704700BF4C174020A4
:1058400054174020F0B587B0022858D1012959D00B
:10585000022916D10B26072425462E4B03EB0413F1
:105860009B7A002B51D0631CDBB22A4FDCB2B442CE
:1058700040D21D4607EB0311897A581C21B103461B
:10588000F4E74FF0FF3437E0224800EB03101646F0
:1058900010220021204B98471E4B03EB05130122D9
:1058A0009A721E4A138801339BB2138013889BB2ED
:1058B0001BB9138801339BB21380184B1A8892B21C
:1058C000144B03EB0513DA8064B216F0010F13D00A
:1058D00006AA02F8044D0F4B03EB05152123EB72CA
:1058E00000230293019300930423502102200C4DC6
:1058F000A84701E04FF0FF34204607B0F0BD4FF05D
:10590000FF34F9E707260024A6E7024800EB04105D
:10591000BDE700BF9C164020593540007A0A402060
:10592000BD36400030B589B0041E36DB002934D0C6
:105930001D4B03EB04139B7ADBB2002A30D0012B02
:105940002ED1194B03EB0413DB7A13F0010F22D095
:10595000154B03EB0413DB7A8DF81D304B258DF8C6
:105960001C40082205A8114B98470F4800EB041073
:10597000C388ADF81E3000230293019300930C23DB
:1059800005AA294602200A4CA047002818BF6FF03C
:10599000080009B030BD4425E1E76FF00500F8E7E5
:1059A0006FF00500F5E700BF9C164020453540002C
:1059B000BD36400030B589B00C46003118BF01211A
:1059C000B2F5AF6F88BF0021002937D0002835DB42
:1059D0001D4B03EB00139B7ADBB2012B31D18DF809
:1059E0001000ADF81220184B03EB0013DB88ADF864
:1059F0001C300728B4BF50254425134B03EB00137C
:105A0000DB7A13F0010F17D00F4B03EB0010058961
:105A1000ADB24C2102950192009410230DEB0302CC
:105A200041F080010220094CA04700280CBF002053
:105A30006FF00D0009B030BD4521EBE76FF00500B8
:105A4000F8E76FF00500F5E79C164020BD364000F2
:105A5000002918BF002A44D070B586B00E461546FE
:105A6000002836DB204A02EB0012927AD2B2012AD9
:105A700032D11D4C0101621866509580127B002ABC
:105A80002DD104EB001201211173D27A0A40002AB1
:105A90000CBF46214D21D3B94FF0FF3304938DF84D
:105AA0001400114B03EB0010C388ADF8163000232F
:105AB000029301930093082304AA02200B4CA047F1
:105AC00000280CBF00206FF00D0006B070BD0493DD
:105AD000E5E76FF00500F8E76FF00500F5E7002057
