S015000030372D50494F2D4F55545055542E7372656375
S214400000C8244020FD034000F9034000F9034000A7
S214400010F9034000F9034000F903400000000000E7
S214400020000000000000000000000000F90340004F
S214400030F903400000000000F9034000F9034000C7
S214400040F9034000F9034000F9034000F90340007B
S214400050F9034000F9034000F9034000F90340006B
S214400060F90340000000000075024000890240008D
S2144000709D024000F9034000F9034000F9034000A8
S214400080B1024000C5024000F9034000F9034000B9
S214400090F9034000F9034000F9034000F90340002B
S2144000A0F9034000F9034000F9034000F90340001B
S2144000B0F9034000F9034000F9034000F90340000B
S2144000C0F9034000F9034000F9034000F9034000FB
S2144000D000000000F903400000000000F903400063
S2144000E0F9034000F9034000F9034000F9034000DB
S2144000F0F9034000F9034000F9034000F9034000CB
S214400100F9034000F9034000F9034000F9034000BA
S214400110F90340000000000000000000000000005E
S214400120F9034000F9034000F9034000F90340009A
S214400130F903400000000000F9034000F9034000C6
S21440014010B5054C237833B9044B13B10448AFF3CC
S21440015000800123237010BD3804402000000000BA
S214400160040840000C4B43B10C480D4910B5AFF3A2
S21440017000800C48036823B910BD0A48036833B9A9
S2144001807047094B002BF7D0BDE810401847064B88
S214400190002BF5D0184700BF0000000004084000C0
S2144001A03C044020040840000000000010B5104801
S2144001B0104B98473E2100200F4B98470F4CA047C6
S2144001C00028FCD00E4B98470E4A0F4B9A620F4CB5
S2144001D0A0470028FCD002200D4B984700200D4B2E
S2144001E098470D4B98470248024B984710BD00BFB2
S2144001F000A3E111D105400075034000C90340004B
S214400200D9034000013F182000060E40E903400095
S214400210D902400011034000C5044000C06C70473E
S214400220806C70472DE9F041044688460E4B98474F
S214400230054620460D4B9847054013D00C4C04F11C
S214400240600603E0B4420DD010345DB120684045EE
S214400250F8D161682942F5D0E3689847636825EA93
S2144002600305EFE7BDE8F0811D0240002102400093
S2144002705404402008B50A210148024B984708BD5F
S214400280000E0E402502400008B50B210148024BE7
S214400290984708BD00100E402502400008B50C21C6
S2144002A00148024B984708BD00120E402502400008
S2144002B008B510210148024B984708BD00140E406F
S2144002C02502400008B511210148024B984708BD59
S2144002D000160E4025024000032811D0042812D0F4
S2144002E002280CBF4FF480710021084A136B23F498
S2144002F040730B431363936E13F0080FFBD07047A5
S2144003004FF44071F1E74FF40071EEE700060E40FF
S214400310174A136B23F0700318431063936E13F061
S214400320080F0AD14FF4805311498A6E12F0080F15
S21440033003D1013BF9D1012070470D4A136B23F0DE
S214400340030343F002031363936E13F0080F0AD1BE
S2144003504FF4805306498A6E12F0080F05D1013BD0
S214400360F9D101207047002070470020704700BF39
S21440037000060E40A0B90E48036A090289B20D4A2B
S2144003801A400D4B1343194301620246936E13F015
S214400390010FFBD0064A116A084B0B4313627047A5
S2144003A003490B6A064A1A40064B13430B627047D2
S2144003B000060E40FCFFC8FF010037000000370172
S2144003C0FCFFC8FE02003701024B986E00F48030F6
S2144003D0704700BF00060E404FF00052014B9A6235
S2144003E0704700BF00060E40024B986E00F00200B9
S2144003F0704700BF00060E40FEE7000000B583B021
S214400400254B264A9A4210D0254B234A9A420CD274
S214400410013B9B1A23F00303043313441F4951F84E
S214400420040B42F8040B9A42F9D11E4B1E4A9A42DC
S2144004300AD2013B9B1A23F00303043313440021E2
S21440044042F8041B9342FBD1184A194B23F07F0312
S2144004509360EFF31083B3FA83F35B09019372B6AC
S214400460BFF35F8F0022134B1A700199124A13682C
S21440047043F470031360BFF34F8FBFF36F8F29B100
S21440048001220C4B1A70BFF35F8F62B60B4B984736
S2144004900B4B9847FEE700BF000040200408400092
S2144004A038044020C40440203804402000ED00E0DA
S2144004B0000040000A00402088ED00E0950640001D
S2144004C0450640003B4B1B6B03F00303012B1DD03E
S2144004D083B1022B36D0374B1B6B03F07003702B67
S2144004E05FD0344B1A6B3449C2F302120B68D340C8
S2144004F00B607047314B5B6913F0800F14BF4FF4AD
S21440050000424FF4FA422C4B1A60E4E7294B1B6A30
S21440051013F0807F03D02A4A274B1A60DBE7294A2C
S214400520254B1A60234B1B6A03F07003102B05D033
S214400530202BD0D1224A204B1A60CCE7224A1E4BB1
S2144005401A60C8E71B4B1B6A13F0807F16D01C4A04
S214400550194B1A60174B1B6B03F00303022BBAD1DF
S214400560144A916A926A1448C1F30A41036801FB2F
S2144005700333D2B2B3FBF2F30360ACE7114A0E4B3F
S2144005801A600C4B1B6A03F07003102B05D0202B0F
S214400590E0D10B4A084B1A60DCE70B4A064B1A6060
S2144005A0D8E7054A13680949A1FB03135B081360A3
S2144005B0704700BF00060E400C00402010180E404A
S2144005C0001BB70000093D0000127A00ABAAAAAA99
S2144005D0124B984211D9124B984213D9114B98425C
S2144005E014D9114B984215D9104B984294BF4FF0EE
S2144005F004220F4A0F4B1A6070474FF080620D4B33
S2144006001A6070470C4A0B4B1A6070470B4A094BEE
S2144006101A6070470A4A074B1A607047FF2C310130
S214400620FF596202FF869303FFB3C404FFE0F5055B
S21440063000050004000C0E40000100040002000407
S2144006400003000480B50F4B98474FF400420E4B12
S2144006505A604FF48052A3F59253103B1A6103F54B
S21440066040634FF480721A611A601E4617469046E1
S214400670064D074CC6F834802846A04737632846C0
S214400680A047F7E7AD01400050180E40252B4D001F
S2144006900100402070B50F4E0F4D761BB61018BFA8
S2144006A0002405D0013455F8043B9847A642F9D1BA
S2144006B00A4E0B4D761B00F093F8B61018BF002478
S2144006C006D0013455F8043B9847A642F9D170BD90
S2144006D070BD00BFEC074000EC074000F407400048
S2144006E0EC074000024B13B1024800F005B87047D3
S2144006F00000000005074000002301461A46184641
S21440070000F01AB838B50A4C0A4D641BA4100AD03B
S21440071004F18043013B05EB8305013C55F8043961
S2144007209847002CF9D1BDE8384000F063B800BFC8
S21440073004084000000840002DE9F047254C256895
S214400740D5F848410646884692469946C4B36068FE
S2144007501F2817DC431C76B104EB80050122C5F840
S21440076088A0D4F8881182401143022EC4F888111C
S214400770C5F808911ED00230636044F820800020FF
S214400780BDE8F087144B03B34FF4C870AFF3008056
S2144007900446D0B1D5F84831002780E88800C5F82F
S2144007A0484138460123C4F88871C4F88C71002E3D
S2144007B0E1D0D1E7D4F88C110A43C4F88C21DAE7AB
S2144007C005F5A674C5F84841C1E74FF0FF30BDE8CF
S2144007D0F08700BFDC07400000000000100040200B
S2144007E0F8B500BFF8BC08BC9E467047E50640001A
S2144007F065014000F8B500BFF8BC08BC9E4670478F
S208400800410140002D
S214400804BFF35F8F0138FBD17047010000093D00FC
S21440081400000000FC02402064034020CC0340203B
S214400824000000000000000000000000000000007F
S214400834000000000000000000000000000000006F
S214400844000000000000000000000000000000005F
S214400854000000000000000000000000000000004F
S214400864000000000000000000000000000000003F
S214400874000000000000000000000000000000002F
S214400884000000000000000000000000000000001F
S214400894000000000000000000000000000000000F
S2144008A400000000000000000000000000000000FF
S2144008B400000000000000000100000000000000EE
S2144008C40E33CDAB34126DE6ECDE05000B000000B3
S2144008D400000000000000000000000000000000CF
S2144008E400000000000000000000000000000000BF
S2144008F400000000000000000000000000000000AF
S214400904000000000000000000000000000000009E
S8044003FDBB
